:020000041000EA
:101000004805002019100010000000009910001081
:1010100000040100000100001149124A124B00F0C7
:1010200018F8124880471249124A134B00F011F881
:101030001249134A134B00F00CF81349134A0020CD
:10104000521A02DD043A8850FCDC114880471148EE
:1010500080479B1A03DD043BC858D050FBDC704727
:1010600004C800100C0000204401002035110010BD
:101070003CC9001048050020A009002094CD0010B4
:10108000A0090020381D0020381D00205C1F002012
:1010900079B9001021120010FEE700000448054B4A
:1010A00010B5834203D0044B002B00D0984710BDED
:1010B000A0090020A0090020000000000648074900
:1010C000091A8B10C90FC91810B5491003D0044B69
:1010D000002B00D0984710BDA0090020A0090020D7
:1010E0000000000010B5074C2378002B09D1FFF752
:1010F000D5FF054B002B02D0044800E000BF0123C0
:10110000237010BD381D00200000000000C8001032
:10111000054B10B5002B03D00449054800E000BF83
:10112000FFF7CCFF10BDC046000000003C1D0020B2
:1011300000C8001080B500AF02F044FF02F030FF9D
:10114000C046BD4680BD80B500AF0B4B1B899BB22E
:1011500009498022520113439BB20B81064A48235E
:10116000D35A9BB204498022120113439AB24823F6
:10117000CA52C046BD4680BD0000054080B500AFE4
:101180000A4BC0225A620A4B0A4A1A60C046084BF0
:101190001A688023DB051340F9D1044BC3225A623D
:1011A00000F00AF8C046BD4680BDC04600000140C0
:1011B000000301400001F13F80B500AF124B1B68F6
:1011C0001B0AFF221A40114B1A600F4B1B68FF22AB
:1011D0001A400F4B1A600D4B1B68002B0ED00B4BA7
:1011E0001B681A020A4B1B68D3181900094809F03A
:1011F000ADFC03005A00084B1A6002E0064B074A98
:101200001A60C046BD4680BD00030140541D002049
:10121000581D0020000024F4FC3F00200048E80195
:1012200080B500AF09F0F5FA024B1A68024B1A605C
:10123000FAE7C0464C1E00205C1D002080B584B03B
:1012400000AF786039603B001B785B075B0FDBB257
:101250001A00BB1C1B889B059B0D9BB21B041343F0
:10126000FB607A68F8235B00F968D150FB1C1B789F
:10127000DB06DB0FDBB21A07FB1C1B781B079B0F7F
:10128000DBB29B061A43FB1C1B789B06DB0FDBB211
:101290005B071343FB60FB1C1B785B06DB0FDBB2B9
:1012A0009B07FA681343FB607A68F8235B00D25807
:1012B000FB681343802212061A4311007A68F82350
:1012C0005B00D150C046BD4604B080BD80B582B041
:1012D00000AF78607B6884229B58802292041A4376
:1012E0007B6884215A50C046BD4602B080BD80B59F
:1012F00082B000AF78607B6884229B58044A1A4011
:101300007B6884215A50C046BD4602B080BDC046AD
:10131000FFFFFFFD80B582B000AF78607B6884225C
:101320009B588022D2041A437B6884215A50C046BD
:10133000BD4602B080BD80B582B000AF78607B68EA
:1013400084229B58044A1A407B6884215A50C04624
:10135000BD4602B080BDC046FFFFFFFB80B582B036
:1013600000AF78607B6884229B58802252041A4325
:101370007B6884215A50C046BD4602B080BD80B50E
:1013800082B000AF78607B6884229B58044A1A4080
:101390007B6884215A50C046BD4602B080BDC0461D
:1013A000FFFFFFFE80B582B000AF78607A688223CD
:1013B0005B00D3588022D2001A4311007A6882233E
:1013C0005B00D150C0467A6884235B00D35820224A
:1013D0001340F8D0C046C046BD4602B080BD80B5BF
:1013E00000AF044BFF221A60012002F0A5F8C046AE
:1013F000BD4680BD0005014080B500AF012002F070
:1014000083F8C046BD4680BD80B582B000AF78602D
:101410003960FFF7E4FF3B685A697B681A603B68F4
:101420005B68802212021A437B6880215A503B6815
:101430009A687B68A0215A503B68DA687B68A421CF
:101440005A503B6819697A68A0239B00D1503B68C9
:101450001A687B68B8215A50C046BD4602B080BDAC
:1014600080B584B000AFF860B9603B60FB1D1A70B6
:10147000FB1D1B78002B09D1BB680B4A13401900D8
:10148000FB683A6828329200D15008E0BB68074AEE
:1014900013401900FB683A6828329200D150C046C8
:1014A000BD4604B080BDC0461F07000000001F07F6
:1014B00080B584B000AF78607B6880229B58802222
:1014C00012061A437B6880215A500F23FB18002212
:1014D0001A7025E00F23FB181A78164B9200D35888
:1014E000BB60BB6880229A58C0239B02134011D076
:1014F00000E0C046BB6880229A5880239B051340B9
:10150000F7D000E0C046BB6880229A5880235B0574
:101510001340F7D10F217B181A787B1801321A700B
:101520000F23FB181B78012BD4D9C046C046BD46FB
:1015300004B080BD38BB001080B586B000AFF86045
:10154000B9607A6000237B617A69BB6813437B6171
:101550007B681B047A6913437B61FB68B8217A6955
:101560005A50C046BD4606B080BD80B584B000AFBD
:10157000786008001100FB1C021C1A703B000A1C5A
:101580001A807B68B8229B58FB60FB1C1B78022BDF
:1015900009D1FB681B0B1B03FB603B001B88FA682F
:1015A0001343FB600DE0FB1C1B78032B09D1FB6888
:1015B000084A1340FB603B001B881B04FA68134376
:1015C000FB607B68B821FA685A50C046BD4604B03B
:1015D00080BDC046FFFF00F080B582B000AF7860EC
:1015E0000A00BB1C1A807A68C0239B00D3581B0CCE
:1015F00019047A68C0239B00D1507A68C0239B00ED
:10160000D258BB1C1B889B001A4311007A68C02368
:101610009B00D150C046BD4602B080BD80B584B0AD
:1016200000AF78607A68C0239B00D358BB60BB686A
:10163000002B08DABB689B0FDAB20F23FB180121DD
:101640000A401A7003E00F23FB1802221A700F23BE
:10165000FB181B781800BD4604B080BD80B586B06D
:1016600000AFF860B9607A60BB68002B04D100233A
:101670003B610F237B6103E004233B61F0237B612B
:10168000FA68FC239B00D3587A69D2431A401100B0
:10169000FA68FC239B00D150FA68FC239B00D258C7
:1016A00079683B6999400B001A431100FA68FC23E2
:1016B0009B00D150C046BD4606B080BD80B584B009
:1016C00000AF78600A00FB1C1A70FB1C1B78032B10
:1016D00004D9FB1C1B78043BFB6002E0FB1C1B785D
:1016E000FB607A68A0235B00D3580B4A13401900B3
:1016F0007A68A0235B00D1507A68A0235B00D2589F
:10170000FB681B041A4311007A68A0235B00D150C8
:10171000C046BD4604B080BDFFFFF0FF80B584B079
:1017200000AF78600A00FB1C1A70FB1C1B78032BAF
:1017300004D9FB1C1B78043BFB6002E0FB1C1B78FC
:10174000FB607A68A0235B00D3580F2293431900F3
:101750007A68A0235B00D1507A68A0235B00D2583E
:10176000FB681A4311007A68A0235B00D150C04681
:10177000BD4604B080BD80B582B000AF78603960EE
:101780003B68596878680023002200F02AF83B681B
:10179000596878680023012200F023F83B689968B3
:1017A00078680123002200F01CF83B68996878688B
:1017B0000123012200F015F83B681A697B6880213B
:1017C0005A503B68DA687B68B8215A503B681A68FF
:1017D0007B6811001800FFF731FDC046BD4602B01E
:1017E00080BD80B58CB000AFF860B9603B60FB1D78
:1017F0001A70FB1D1B78002B19D10823FB62E02314
:10180000DB007B620023BB621F233B620823FB18C3
:101810001B78DB06DB0EDBB2FB610923FB181B78B0
:101820005B075B0FDAB21B23FB181A7019E0182351
:10183000FB62E023DB047B621023BB62F8235B03C3
:101840003B620A23FB181B78DB06DB0EDBB2FB6175
:101850000B23FB181B785B075B0FDAB21B23FB180B
:101860001A70FB683A6828329200D3587B617B6A11
:10187000DA437B6913407B611B23FB181A78FB6AF0
:101880009A4013007A6913437B613B6ADA437B69B0
:1018900013407B61FA69BB6A9A4013007A6913436B
:1018A0007B61FB683A68283292007969D150C04662
:1018B000BD460CB080BD80B584B000AF78600A0032
:1018C000FB1C1A707B6880229B58FB60FB6803221C
:1018D0009343FB60FB1C1B78FA681343FB607B6837
:1018E0008021FA685A50C046BD4604B080BD80B51C
:1018F00086B000AFF860B9607A607A68BB689A42D7
:1019000002D9BB680133BB60FB68C0229B587B6176
:101910007B69032293437B617A69BB6813437B61D4
:10192000FB68C0217A695A50C046BD4606B080BDEA
:1019300080B584B000AF78607B68C0229B58FB60A4
:10194000FB6803229343FB607B68C021FA685A500E
:10195000C046BD4604B080BD80B584B000AF78609D
:1019600039600023BB600023FB600BE0124BFA6878
:101970009200D3587A689A4201D1FB68BB60FB6839
:101980000133FB60FB68012BF0D93A68BB689A42CF
:1019900002D23B6801333B607B68C0229A583B68A7
:1019A0000333012199400B001A437B68C0215A5030
:1019B000C046BD4604B080BD38BB001080B584B0C1
:1019C00000AF786039600023BB600023FB600BE050
:1019D000134BFA689200D3587A689A4201D1FB6897
:1019E000BB60FB680133FB60FB68012BF0D93A68F0
:1019F000BB689A4202D23B6801333B607B68C022DD
:101A00009B583A680332012191400A00D2431A40A0
:101A10007B68C0215A50C046BD4604B080BDC04658
:101A200038BB001080B584B000AFF860B9607A6050
:101A30007A68BB689A4202D27B6801337B60FB689C
:101A4000C0229A587B680333012199400B001A4346
:101A5000FB68C0215A50C046BD4604B080BD80B569
:101A600084B000AF786039607B68C0229B58FB600F
:101A7000FB68032213400DD17B683A6880329200E4
:101A8000D3588022D2001A4311007B683A68803212
:101A90009200D150C046BD4604B080BD80B584B030
:101AA00000AF786039607B68C0229B58FB60FB68A0
:101AB000032213400CD07B683A6880329200D358DE
:101AC000054A134019007B683A6880329200D15071
:101AD000C046BD4604B080BDFFFBFFFF80B584B0AB
:101AE00000AF78607B6880229B58FB60FA68802397
:101AF000DB051340FB60FB689B0FFB60FB68DBB200
:101B00001800BD4604B080BD80B586B000AFF86057
:101B1000B9607A60FB68B8229B587B617B691B0BBC
:101B20001B037B617B690A4A13407B617A69BB684E
:101B300013437B617B681B047A6913437B61FB68F9
:101B4000B8217A695A50C046BD4606B080BDC0462D
:101B5000FFFF00F080B584B000AF7860080011008E
:101B6000FB1C021C1A703B000A1C1A807B68B822FE
:101B70009B58FB60FB1C1B78002B09D1FB681B0BDF
:101B80001B03FB603B001B88FA681343FB600DE0FE
:101B9000FB1C1B78012B09D1FB68084A1340FB6032
:101BA0003B001B881B04FA681343FB607B68B82169
:101BB000FA685A50C046BD4604B080BDFFFF00F031
:101BC00080B586B000AFF860B960FB1D1A70FA6886
:101BD000E4235B00D3587B61FB1D1B78002B07D1EE
:101BE0000122BB689A4013007A6913437B6107E0C6
:101BF000BB68083301229A4013007A6913437B6162
:101C0000FA68E4235B007969D150C046BD4606B04E
:101C100080BD80B584B000AF786008001100FB1C67
:101C2000021C1A70BB1C0A1C1A70FB1C1B789B0040
:101C3000FB607B68D4229B580F21FA6891400A0010
:101C4000D2431A407B68D4215A507B68D4229A58D8
:101C5000BB1C1978FB6899400B001A437B68D421A0
:101C60005A50C046BD4604B080BD80B582B000AFBA
:101C7000786039603B681B68802212021A437B68D7
:101C80001A647B68BC229B58012293431A007B682C
:101C9000BC215A507B68BC229B583A6812791A437F
:101CA0007B68BC215A50C046BD4602B080BD80B59D
:101CB00082B000AF78600A00FB1C1A70FB1C1B7816
:101CC000002B08D17B6880229B5801221A437B6835
:101CD00080215A500BE0FB1C1B78012B07D17B683D
:101CE00084229B5801221A437B6884215A50C046A3
:101CF000BD4602B080BD80B582B000AF78600A00FA
:101D0000FB1C1A70FB1C1B78002B09D17B688022FE
:101D10009B58012293431A007B6880215A500CE0A3
:101D2000FB1C1B78012B08D17B6884229B58012265
:101D300093431A007B6884215A50C046BD4602B0C6
:101D400080BD80B582B000AF786008001100FB1C38
:101D5000021C1A70BB1C0A1C1A70FB1C1B78002B7F
:101D600012D17B6880229B58144A1A407B688021DC
:101D70005A507B6880229A58BB1C1B781B021A435E
:101D80007B6880215A5015E0FB1C1B78012B11D178
:101D90007B6884229B58094A1A407B6884215A50E8
:101DA0007B6884229A58BB1C1B781B021A437B68F1
:101DB00084215A50C046BD4602B080BDFFC0FFFF1F
:101DC00090B585B000AF78600C0010001900FB1CC6
:101DD000221C1A70BB1C021C1A707B1C0A1C1A7075
:101DE0007B1C1B789B00FB60BB1C1B78002B1ED14F
:101DF0007A68C0235B00D3580F21FA6891400A002B
:101E0000D2431A4011007A68C0235B00D1507A682F
:101E1000C0235B00D258FB1C1978FB6899400B006B
:101E20001A4311007A68C0235B00D15021E0BB1C2B
:101E30001B78012B1DD17A68C8235B00D3580F2172
:101E4000FA6891400A00D2431A4011007A68C82308
:101E50005B00D1507A68C8235B00D258FB1C19780C
:101E6000FB6899400B001A4311007A68C8235B0095
:101E7000D150C046BD4605B090BD80B582B000AF20
:101E800078600A00FB1C1A70FB1C1B78002B08D121
:101E90007B68E0229B585B005A087B68E0215A501F
:101EA0000BE0FB1C1B78012B07D17B68E4229B58BD
:101EB0005B005A087B68E4215A50C046BD4602B018
:101EC00080BD80B582B000AF78600A00FB1C1A703C
:101ED000FB1C1B78002B09D17B68E0229B588022D9
:101EE00012061A437B68E0215A500CE0FB1C1B7859
:101EF000012B08D17B68E4229B58802212061A43EA
:101F00007B68E4215A50C046BD4602B080BD80B512
:101F100084B000AF786008001100FB1C021C1A702E
:101F2000BB1C0A1C1A700023FB60FB1C1B78002BD7
:101F30000AD17B68E0229A58BB1C1B78DA40130058
:101F40007F221340FB600DE0FB1C1B78012B09D1A5
:101F50007B68E4229A58BB1C1B78DA4013007F226E
:101F60001340FB60FB68DBB21800BD4604B080BDC7
:101F700090B583B000AF78600C0010001900FB1C16
:101F8000221C1A70BB1C021C1A707B1C0A1C1A70C3
:101F9000FB1C1B78002B20D17B68E0229B58BA1CCD
:101FA00012787F2191400A00D2431340802212020E
:101FB0001A437B68E0215A507B68E0229A587B1CC8
:101FC0001978BB1C1B7899400B0013438022120226
:101FD0001A437B68E0215A5023E0FB1C1B78012B3D
:101FE0001FD17B68E4229B58BA1C12787F21914054
:101FF0000A00D2431340802212021A437B68E42174
:102000005A507B68E4229A587B1C1978BB1C1B78B9
:1020100099400B001343802212021A437B68E4218B
:102020005A50C046BD4603B090BD90B583B000AFD6
:1020300078600C0010001900FB1C221C1A70BB1CDD
:10204000021C1A707B1C0A1C1A707B681B6DBA1C60
:1020500012780D4991400A00D2431A407B681A65F4
:102060007B681A6D7B1C1978FB1C1B781B021943BB
:10207000BB1C1B7899400B001A437B681A65C0464D
:10208000BD4603B090BDC0461F81000080B584B03E
:1020900000AF786039607B681800FFF728F97B682B
:1020A00084229B58FB60FB6830229343FB603B68B3
:1020B0001B781B079B0FDBB21B01FA681343FB6005
:1020C0003B681B7803221340DBB2002B03D0FB6874
:1020D00080221343FB607B688421FA685A503B6876
:1020E0005B68154A1A4311007A6890235B00D1504F
:1020F0003B689B6801221A4311007A6892235B00B7
:10210000D1503B681B7803221340DBB2022B0BD16A
:102110007A6892235B00D358802252021A4311003E
:102120007A6892235B00D1507B681800FFF7CEF8E5
:10213000C046BD4604B080BD0080808080B584B0BC
:1021400000AF78600A00FB1C1A707A6890235B006D
:10215000D358FB60FB68802212021343FB60FB68CC
:10216000084A1340FB60FB1C1B781B02FA681343F0
:10217000FB607A6890235B00F968D150C046BD4689
:1021800004B080BDFFF0FFFF80B584B000AF786081
:102190000A00FB1C1A707A6890235B00D358FB601E
:1021A000FB68802212021343FB60FB68084A13405D
:1021B000FB60FB1C1B785B03FA681343FB607A68C7
:1021C00090235B00F968D150C046BD4604B080BD85
:1021D000FF9FFFFF80B584B000AF78600A00FB1C52
:1021E0001A707A6890235B00D358FB60FB688022EA
:1021F00012041343FB60FB68084A1340FB60FB1C9E
:102200001B781B04FA681343FB607A6890235B0019
:10221000F968D150C046BD4604B080BDFFFFF0FF55
:1022200090B585B000AF78607A6890235B00D35892
:10223000FB607A6890235B001E49D1507B68842242
:102240009B585B0E01221A400B243B19511E8A41F8
:102250001A707B681800FFF74AF87A6892235B00CF
:10226000D3580322934319007A6892235B00D1501C
:102270007A6892235B00D358802252001A431100DF
:102280007A6892235B00D1507B6884229A583B196C
:102290001B785B061A437B6884215A50FB68054A09
:1022A0001A4311007A6890235B00D150C046BD46A6
:1022B00005B090BD0080808080B586B000AF7860AA
:1022C0000023FB607A6896235B00D358002B17D05D
:1022D0007A6896235B00D3587B6100233B610CE056
:1022E0007B690122134002D0FB680133FB607B69EC
:1022F0005B087B613B6901333B613B69072BEFD98D
:10230000FB681800BD4606B080BD80B584B000AF44
:1023100078600A00FB1C1A707A68E0235B00D358CF
:10232000FB60FB68F0229343FB60FB1C1B781B01E6
:10233000FA681343FB607A68E0235B00F968D150C8
:10234000C046BD4604B080BD80B584B000AF7860A3
:1023500039607A6894235B00D358FB6001223B68A4
:102360009A401300DB431A00FB681340FB607A6855
:1023700094235B00F968D150C046BD4604B080BDCF
:1023800090B587B000AF786039601723FB18002242
:102390001A700DE017243B191A78484B9200D35855
:1023A0001800FEF7C8FF3B191A783B1901321A7062
:1023B0001723FB181B78012BECD900233B613B68EA
:1023C0001B7803221340DBB2002B02D080231B01B9
:1023D0003B611723FB1800221A7027E017217B1896
:1023E0001A78364B9200D35884229B58FB60FB68C6
:1023F000334A1340FB603B681B781B079B0FDBB223
:102400001B02FA681343FB60FA683B691343FB60E5
:1024100008007B181A78294B9200D3588421FA6857
:102420005A503B181A783B1801321A701723FB18C0
:102430001B78012BD2D93B685B68224A1A431100F2
:102440007A6880239B00D1503B689B6801221A4325
:1024500011007A6881239B00D1503B681B780322CE
:102460001340DBB2022B0BD17A6881239B00D35837
:10247000802252021A4311007A6881239B00D150B6
:102480001723FB1800221A700DE017243B191A7845
:102490000A4B9200D3581800FEF73CFF3B191A78FC
:1024A0003B1901321A701723FB181B78012BECD94A
:1024B000C046C046BD4607B090BDC04638BB001000
:1024C000FFFCFFFF0080800080B584B000AF786023
:1024D00039607A6880239B00D358FB60FB688022B8
:1024E00012021343FB60FB68084A1340FB603B6821
:1024F0001B02FA681343FB607A6880239B00F9682B
:10250000D150C046BD4604B080BDC046FFF0FFFFBD
:1025100080B584B000AF78600A00FB1C1A707A683E
:1025200080239B00D358FB60FB6880221202134378
:10253000FB60FB68084A1340FB60FB1C1B785B03D5
:10254000FA681343FB607A6880239B00F968D150D6
:10255000C046BD4604B080BDFF9FFFFF80B584B07C
:1025600000AF786039607A6880239B00D358FB60A5
:10257000FB68802212041343FB60FB68084A134087
:10258000FB603B681B04FA681343FB607A68802396
:102590009B00F968D150C046BD4604B080BDC0461E
:1025A000FFFFF0FF80B586B000AF78607A688023C7
:1025B0009B00D3583B617A6880239B002749D15008
:1025C00000237B6117E0264B7A699200D35884225E
:1025D0009B589B0ED9B20C23FA187B69D3180A1C9E
:1025E0001A701F4B7A699200D3581800FEF7A3FEA9
:1025F0007B6901337B617B69012BE4D97A68812394
:102600009B00D358802252001A4311007A6881231C
:102610009B00D15000237B6110E00C23FA187B69EA
:10262000D3181B78012B06D10D4B7A699200D35831
:102630001800FEF76FFE7B6901337B617B69012B1C
:10264000EBD93B69054A1A4311007A6880239B0045
:10265000D150C046BD4606B080BDC0460080800057
:1026600038BB001080B586B000AF78600023BB6037
:1026700000233B6122E07B683A6960329200D358C4
:10268000002B18D07B683A6970329200D3587B6176
:102690000023FB600CE07B690122134002D0BB6881
:1026A0000133BB607B695B087B61FB680133FB60C6
:1026B000FB68072BEFD93B6901333B613B69012B79
:1026C000D9D9BB681800BD4606B080BD80B584B0BE
:1026D00000AF786039607B681800FEF750FE7B68B9
:1026E00084229B58FB60FB6803229343FB603B689A
:1026F0001B781B079B0FDBB21A00FB681343FB60C0
:102700003B681B7803221340DBB2002B03D0FB682D
:1027100008221343FB607B688421FA685A503B68A7
:102720005B68154A1A4311007A6880235B00D15018
:102730003B689B6801221A4311007A6882235B0080
:10274000D1503B681B7803221340DBB2022B0BD124
:102750007A6882235B00D358802252021A43110008
:102760007A6882235B00D1507B681800FEF7F6FD83
:10277000C046BD4604B080BD0080808080B584B076
:1027800000AF78600A00FB1C1A707A6880235B0037
:10279000D358FB60FB68802212021343FB60FB6886
:1027A000084A1340FB60FB1C1B781B02FA681343AA
:1027B000FB607A6880235B00F968D150C046BD4653
:1027C00004B080BDFFF0FFFF80B584B000AF78603B
:1027D0000A00FB1C1A707A6880235B00D358FB60E8
:1027E000FB68802212021343FB60FB68084A134017
:1027F000FB60FB1C1B785B03FA681343FB607A6881
:1028000080235B00F968D150C046BD4604B080BD4E
:10281000FF9FFFFF80B584B000AF78600A00FB1C0B
:102820001A707A6880235B00D358FB60FB688022B3
:1028300012041343FB60FB68084A1340FB60FB1C57
:102840001B781B04FA681343FB607A6880235B00E3
:10285000F968D150C046BD4604B080BDFFFFF0FF0F
:1028600080B586B000AF78607A6884235B00D35867
:102870003B617A6888235B00D358FB603B69202268
:10288000134002D000237B6104E03B690F22134018
:1028900001337B61FA6880235B00134002D07B69BF
:1028A00001337B617B691800BD4606B080BD90B5E1
:1028B00085B000AF78607A6880235B00D358FB60F6
:1028C0007A6880235B001549D1507B6884229B582D
:1028D0001B0E01221A400B243B19511E8A411A700B
:1028E0007B681800FEF74BFD7B681800FEF75AFD69
:1028F0007B6884229A583B191B781B061A437B6815
:1029000084215A50FB68054A1A4311007A688023D3
:102910005B00D150C046BD4605B090BD00808080B0
:1029200080B586B000AF78607A6880235B00D358AA
:102930003B617A6880235B002649D1507B68842202
:102940009B581B0E01221A400F23FB18511E8A416F
:102950001A707B681800FEF712FD7B681800FFF7FD
:102960007FFF0300BB60BB68002B1CD07A6882230A
:102970005B00D358802252001A4311007A688223E8
:102980005B00D1507B681800FFF76AFF03007B6192
:1029900005E07B681800FFF763FF03007B617A693D
:1029A000BB689A42F5D07B6884229A580F23FB18A3
:1029B0001B781B061A437B6884215A503B69054AE1
:1029C0001A4311007A6880235B00D150C046BD468F
:1029D00006B080BD0080808080B584B000AF786094
:1029E0007A6888235B00D25880235B00134008D0AC
:1029F0007A6888235B00D3581A001F231340FB60BA
:102A000013E07A6886235B00D25880235B00134072
:102A100008D07A6886235B00D3581A001F2313401E
:102A2000FB6002E001235B42FB60FB681800BD46CF
:102A300004B080BD80B584B000AF78607A68882328
:102A40005B00D25880235B00134008D07A6888234B
:102A50005B00D3581A001F231340FB6002E00123E0
:102A60005B42FB60FB681800BD4604B080BD80B5CA
:102A700084B000AF78600A00FB1C1A707A68E0230B
:102A80005B00D358FB60FB680F229343FB60FB1C89
:102A90001B78FA681343FB607A68E0235B00F968EF
:102AA000D150C046BD4604B080BD80B588B000AFEF
:102AB000F860B9607A607B681B7BBB61FB68882229
:102AC0009B587B610122BB689A401300DA437B6903
:102AD00013407B61BA69BB689A4013007A6913435B
:102AE0007B61FB6888217A695A507B685B7B5BB2AB
:102AF000002B2BDB0023FB61BB68012B0AD10823D1
:102B0000FB61FB68B0229B581F4A1A40FB68B0214A
:102B10005A500DE0BB68002B0AD10023FB61FB6813
:102B2000B0229B581F2293431A00FB68B0215A50D1
:102B3000FB68B0229B587A68527B52B21100FA6946
:102B400091400A001A43FB68B0215A50FB68C82222
:102B50009A587B685B681A43FB68C8215A50FB6827
:102B6000D0229A587B689B681A43FB68D0215A5040
:102B70007B681968FB68BA6880329200D150C04601
:102B8000BD4608B080BDC046FFE0FFFF80B586B0FF
:102B900000AF786039601723FB1800221A707B6839
:102BA0003A6880329200D3583B613B691B0A03228A
:102BB00013403B617A68C0235B00D358FB6001225D
:102BC0003B689A40FB681340FB603B69012B02D0D5
:102BD0003B69022B06D1FB68002B03D01723FB189F
:102BE00001221A701723FB181B781800BD4606B087
:102BF00080BD80B586B000AFF860B960FB1D1A706B
:102C0000FB68BA6880329200D3587B617B69094ABD
:102C100013407B61FB1D1B78DB027A6913437B61E8
:102C2000FB68BA68803292007969D150C046BD46CF
:102C300006B080BDFFF7FFFF80B586B000AFF8603B
:102C4000B9607A60FB68BA6880329200D3587B61C1
:102C50007B69094A13407B617B681B047A691343D3
:102C60007B61FB68BA68803292007969D150C046B6
:102C7000BD4606B080BDC046FFFFF0FF80B586B000
:102C800000AFF860B960FB1D1A70FB68BA6880324B
:102C90009200D3587B617B69032293437B61FB1DC8
:102CA0001B787A6913437B61FB68BA6880329200B3
:102CB0007969D150C046BD4606B080BD80B584B0AC
:102CC00000AF786039607B683A6880329200D358F0
:102CD0001B0CDAB20F203B180F210A401A703B1868
:102CE0001B781800BD4604B080BD80B584B000AF2D
:102CF000786039607A68C0235B00D358FB6001229A
:102D00003B689A401300FA681343FB607A68C0235B
:102D10005B00F968D150C046BD4604B080BD80B5A7
:102D200086B000AFF860B960FB1D1A70FA68D02356
:102D30005B00D3587B61BB689B000F229A40130055
:102D4000DA437B6913407B61FB1D1A78BB689B00EB
:102D50009A4013007A6913437B61FA68D0235B00C1
:102D60007969D150C046BD4606B080BD80B586B0F9
:102D700000AFF860B960FB1D1A70FB68BA6880325A
:102D80009200D3587B617B69094A13407B61FB1D2C
:102D90001B781B027A6913437B61FB68BA68803237
:102DA00092007969D150C046BD4606B080BDC0468C
:102DB000FFFCFFFF80B584B000AFF860B960190078
:102DC000FB1D1A70BB1D0A1C1A70FB68BA688032A2
:102DD0009200D358FA1D1278302191400A00D24354
:102DE0001A401100FB68BA6880329200D150FB682B
:102DF000BA6880329200D358BA1D1178FA1D127841
:102E0000043291400A0013431900FB68BA6880320B
:102E10009200D150C046BD4604B080BD80B584B09C
:102E200000AF786039607B683A68A0329200D3586E
:102E3000FB60FB68084A1340FB60FB688022920439
:102E40001343FB607B683A68A0329200F968D15066
:102E5000C046BD4604B080BDFFFFFFF980B586B017
:102E600000AFF860B960BB1D1A80FB68BA68C03259
:102E70009200D3587B617B691B0C1B047B61BB1DDB
:102E80001B889B007A6913437B61FB68BA68C03278
:102E900092007969D150C046BD4606B080BD80B56C
:102EA00084B000AF786039607B683A68C0329200C5
:102EB000D358BB60BB68002B08DABB689B0FDAB243
:102EC0000F23FB1801210A401A7003E00F23FB189F
:102ED00002221A700F23FB181B781800BD4604B09D
:102EE00080BD80B584B000AF78600A00BB1C1A803A
:102EF0007A68C0239B00D358FB60FB681B0C1B0443
:102F0000FB60BB1C1B88FA681343FB607A68C02314
:102F10009B00F968D150C046BD4604B080BD80B565
:102F200086B000AFF860B960FB1D1A70BB68072B54
:102F30001CD8FA68D8235B00D3587B61BB689B0020
:102F40000F229A401300DA437B6913407B61FB1D1B
:102F50001A78BB689B009A4013007A6913437B611F
:102F6000FA68D8235B007969D1501DE0FA68DA234A
:102F70005B00D3587B61BB68083B9B000F229A40E3
:102F80001300DA437B6913407B61FB1D1A78BB6831
:102F9000083B9B009A4013007A6913437B61FA68EF
:102FA000DA235B007969D150C046BD4606B080BDCA
:102FB00080B586B000AF7860396000237B610F2355
:102FC000FB1800221A703A687B681100180000F0A4
:102FD00070F8031E02D03B68013B3B603B68002B4E
:102FE00002D100237B612EE03B683B6126E07B68D9
:102FF0003A69A0329200D358BB60BA68C023DB04A0
:103000001340BB60BB68002B09D03B69002B0DD17E
:1030100000237B610F23FB1801221A7006E03B6935
:1030200001337B610F23FB1801221A700F23FB1859
:103030001B78002B06D13B69013B3B613B69002BB0
:10304000D5DA00E0C0467B691800BD4606B080BDF9
:1030500080B586B000AF786039603A687B6811004F
:10306000180000F026F8031E02D03B687B611BE0CD
:103070000F237B613B683B6113E07B683A69A032B8
:103080009200D358FB60FA68C023DB041340FB6056
:10309000FB68002B02D13B697B6105E03B69013392
:1030A0003B613B690F2BE8D97B691800BD4606B030
:1030B00080BD80B586B000AF786039607B683A68C3
:1030C000A0329200D3583B613A69C023DB0413401D
:1030D0003B613B685A1E7B68A0329200D358FB606C
:1030E000FA68C023DB041340FB603B69002B04D06B
:1030F0001723FB1800221A700BE0FB68002B04D08A
:103100001723FB1801221A7003E01723FB18002273
:103110001A701723FB181B781800BD4606B080BD37
:1031200080B584B000AF786090235B001B687A683C
:10313000100098470300FB60FB68002B14D190231C
:103140005B001B687A680132100098470300FB603F
:10315000FB68002B08D190235B001B687A68013A5A
:10316000100098470300FB60FB681800BD4604B0E0
:1031700080BD80B582B000AF7860054B5968044BC4
:103180007A680A435A60C046BD4602B080BDC04658
:103190003800014080B582B000AF7860054B5A68B6
:1031A0007B68D943034B0A405A60C046BD4602B013
:1031B00080BDC0463800014080B582B000AF786065
:1031C000044BD968034B7A680A43DA60C046BD46AF
:1031D00002B080BD3800014080B582B000AF044B22
:1031E0001B687B607B681800BD4602B080BDC0468E
:1031F0003800014080B582B000AF7860044B996818
:10320000034B7A680A439A60C046BD4602B080BD4F
:103210003800014080B500AF024BC3225A62C0465D
:10322000BD4680BD0000014080B500AF064BC02206
:103230005A62C046044B5B6A04221340FAD1C0466E
:10324000C046BD4680BDC0460000014080B584B088
:1032500000AF78600023FB607B681B68FA6813434B
:10326000FB607B685B689B00FA681343FB607B68CC
:10327000DB7A002B03D0FB6810221343FB60154A56
:10328000FB6899B25023D1520023BB607B681B7A44
:10329000002B03D0BB6808221343BB607B685B7ABA
:1032A000002B03D0BB6880221343BB607B689B7AF2
:1032B000002B04D0BB68802292031343BB60064BF3
:1032C0005968054BBA680A435A60C046BD4604B007
:1032D00080BDC046001001403800014080B584B078
:1032E00000AF78600F23FB1800221A707B6818006B
:1032F000FFF716FF03007B607B68002B04D0084BB0
:103300007A6892B29A8603E00F23FB1801221A70A2
:103310000F23FB181B781800BD4604B080BDC046C3
:103320000010014080B584B000AF78600F23FB1817
:1033300000221A707B681800FFF7F2FE03007B6022
:103340007B68002B04D0084B7A6892B21A8603E09F
:103350000F23FB1801221A700F23FB181B7818008B
:10336000BD4604B080BDC0460010014080B582B0AB
:1033700000AF78603960064B3A6892B21A86044B07
:103380007A6892B29A86C046BD4602B080BDC046F9
:103390000010014080B500AF054B9B8C9BB2044AE6
:1033A00001210B439BB29384C046BD4680BDC046FD
:1033B0000010014080B500AF054B9B8C9BB2044AC6
:1033C00001218B439BB29384C046BD4680BDC0465D
:1033D0000010014080B500AF074B1A688023DB0561
:1033E0001340C0221206944663445A425341DBB252
:1033F0001800BD4680BDC0463800014080B500AF12
:10340000064B1B68DB0FDB078022120694466344E1
:103410005A425341DBB21800BD4680BD380001401E
:1034200080B582B000AF054A4023D35A9BB27B607F
:103430007B681800BD4602B080BDC0460010014048
:1034400080B500AF86235B001B6898470300180017
:10345000BD4680BD80B582B000AF7860FFF7E4FE66
:103460000D4B1B680D4A1A407B689B681A4311007C
:103470007B685A68084B0A431A60FFF7CBFE7B68EB
:103480005B781A007B681B781900100000F0ACF81C
:10349000C046BD4602B080BD00030140FFFFF0FF03
:1034A00080B582B000AF7860FFF7BEFE074B1B68A7
:1034B000074A13401900054B7A680A431A60FFF760
:1034C000A9FEC046BD4602B080BDC0460003014013
:1034D000FFFFF1FF80B582B000AF7860FFF7A4FE78
:1034E000074B1B68074A13401900054B7A680A43CB
:1034F0001A60FFF78FFEC046BD4602B080BDC046D1
:1035000000030140FFFFFEFF80B582B000AF020064
:10351000BB1D1A80FFF788FE064BD968BB1D1A88B1
:10352000044B0A43DA60FFF775FEC046BD4602B0A1
:1035300080BDC0460003014080B582B000AF0200EC
:10354000BB1D1A80FFF770FE094B1969BB1D1A8855
:10355000074B0A431A61C046054B1A688023DB05F6
:103560001340F9D1FFF756FEC046BD4602B080BDFC
:103570000003014080B582B000AF0200BB1D1A807D
:10358000054B9B68BA1D128813405A1E9341DBB24B
:103590001800BD4602B080BD0003014080B586B072
:1035A00000AF78607968FA23D80307F0CFFA0300F8
:1035B0007B617A6980235B029A4201D3094B7B616C
:1035C0007B691B0A3B617B69FF221340FB60FA6841
:1035D0003B691100180000F007F8C046BD4606B070
:1035E00080BDC046FFFF000080B584B000AF7860AA
:1035F0003960FFF719FE214B1B681B0AFF2213409D
:10360000FB601E4B1B681E4A1A403B681A431B4B4B
:103610001C490A431A60C046184B1A688023DB0510
:103620001340F9D1FA687B689A4206D87A68FB6839
:103630001100180000F056F805E07A68FB681100E8
:10364000180000F023F80D4B1B680F4A1A407B68E6
:103650001B021A43094B0B490A431A60C046074B29
:103660001A688023DB051340F9D1FFF7D3FDFDF77E
:10367000A3FDC046BD4604B080BDC0460003014066
:1036800000FF0FC00000F03FFF000FC080B582B008
:1036900000AF7860396014E07B689B087B600E4B5C
:1036A0001B680E4A1A407B681B021A430A4B0C49DE
:1036B0000A431A60C046084B1A688023DB05134092
:1036C000F9D13B689B007A689A42E5D8C046C0466B
:1036D000BD4602B080BDC04600030140FF000FC0E0
:1036E0000000F03F80B582B000AF7860396019E02B
:1036F0007B68002B01D101237B607B689B007B6092
:103700000D4B1B680D4A1A407B681B021A430A4B7B
:103710000B490A431A60C046074B1A688023DB0531
:103720001340F9D17B689B003A689A42E0D8C046C2
:10373000C046BD4602B080BD00030140FF000FC07F
:103740000000F03F80B500AF024B1B681800BD467B
:1037500080BDC046FC3F002080B500AF054B1A6815
:10376000054B1B681B0C01210B409A4013001800ED
:10377000BD4680BDFC3F00200003014080B588B0FD
:1037800000AF7860174B1B78FB61174B1B78BB6150
:10379000164B1B787B61164B1B783B61FA69BB6942
:1037A000D31A79687A698A1A5A4310003A697B6990
:1037B000D31A190007F054FA03001A00BB699B18CA
:1037C000FB60FB680F221340FB60FFF72DFD094AE9
:1037D000FB6899B26C23D152FFF71CFDC046BD4671
:1037E00008B080BD330F0010320F0010300F0010F2
:1037F000310F00100010014080B584B000AF786038
:1038000039600023FB6002E0FB680133FB607A68EB
:10381000FB68DA4013000122134002D1FB681F2B22
:10382000F2D9FB68202B04D10B23FB1801221A705C
:1038300008E0084BFA6892003968D1500B23FB1856
:1038400000221A700B23FB181B781800BD4604B029
:1038500080BDC046601D002080B586B000AF786096
:1038600000237B61FFF7B8FC0100184B7A689200D7
:10387000D3580B403B613B691800FFF7BBFC1BE0D2
:103880003A697B69DA4013000122134011D001220A
:103890007B699A401300DA433B6913403B610C4B50
:1038A0007A699200D358FB60FB68002B01D0FB685B
:1038B00098477B6901337B613B69002B02D07B69B0
:1038C0001F2BDDD9C046BD4606B080BD480500208F
:1038D000601D002080B582B000AF78600A00FB1C3C
:1038E0001A7084235B001B687A685205510DFA1C1C
:1038F000127812031204120C0A438C2109010A43A4
:103900001000984703001800BD4602B080BDC046B5
:1039100080B500AF034B180000F018FBC046BD4651
:1039200080BDC0465405002080B582B000AF0200C3
:10393000FB1D1A70074B084A1A60064B074A5A606B
:10394000FB1D1B78180000F02FF9C046BD4602B0E1
:1039500080BDC046241F0020641E0020C41E00201D
:1039600080B582B000AF0200FB1D1A70FB1D1B78F2
:103970007F2B09D8FB1D1B781A001F231A40044B0C
:10398000012191400A001A60C046BD4602B080BDC8
:1039900000E100E090B583B000AF02003960FB1D8C
:1039A0001A70FB1D1B787F2B28D82F4AFB1D1B7814
:1039B0005BB29B08C0339B009B58FA1D1278110024
:1039C00003220A40D200FF2191400A00D2431A404C
:1039D00011003B689B01FF221A40FB1D1B78180059
:1039E00003230340DB009A401F48FB1D1B785BB29A
:1039F0009B080A43C0339B001A5031E01B4AFB1D51
:103A00001B7819000F230B40083B9B0806339B00D3
:103A1000D31804331B68FA1D1278110003220A40E0
:103A2000D200FF2191400A00D2431A4011003B68A6
:103A30009B01FF221A40FB1D1B7818000323034043
:103A4000DB009A400948FB1D1B781C000F23234014
:103A5000083B9B080A4306339B00C31804331A60D3
:103A6000C046BD4603B090BD00E100E000ED00E0BF
:103A700080B582B000AF78600A00FB1C1A707A68CB
:103A800082235B00D3580322934319007A68822370
:103A90005B00D1507A6882235B00D258FB1C1B78F4
:103AA0001A4311007A6882235B00D150C046BD469C
:103AB00002B080BD80B582B000AF78607A688223A2
:103AC0005B00D3588022D2001A4311007A68822307
:103AD0005B00D150C0467A6884235B00D358202213
:103AE0001340F8D0C046C046BD4602B080BD80B588
:103AF00082B000AF7860396039687A6888235B00EB
:103B0000D150C046BD4602B080BD80B582B000AF86
:103B100078607A68CC235B000121D150C046BD4655
:103B200002B080BD80B582B000AF786039600122FC
:103B30003B689A4011007A68C8235B00D150C046A8
:103B4000BD4602B080BD80B582B000AF3B0004220C
:103B50001A703B0000225A703B0016229A703B1DDF
:103B60003A001188198092789A703A1D00231178D2
:103B7000FF200140FF2083430B435178FF20014089
:103B80000902074803400B439278FF210A401204C0
:103B900004490B4013431800BD4602B080BDC04627
:103BA000FF00FFFFFFFF00FF80B582B000AF020003
:103BB000FB1D1A70FB1D1A78104BD200D3586022DF
:103BC000FF21180007F04EFFFB1D1B780B4ADB009E
:103BD000D31804331B686022FF21180007F042FF4E
:103BE000FB1D1B785A01064BD31820220021180018
:103BF00007F038FFC046BD4602B080BD241F00203C
:103C0000E01D002080B582B000AF78607B689B7EAD
:103C10001800FFF7C9FF7B6800225A77C046BD46EF
:103C200002B080BD90B585B000AF78607B685B7EE8
:103C3000022B4CD17B689B680F22BC18180000F047
:103C400045FA030023707B68D8687B68DB7E1A0026
:103C50007B68196813000022FDF7C3FD7B68DA68F2
:103C60007B685B6819001000FEF730FD7B68DA683E
:103C70007B681B7C19001000FFF7FAFE7B689B7EB7
:103C80001800FFF751FE7B685B691B7B002B19D086
:103C90007B685B691B685AB27B685B695B6819006B
:103CA0001000FFF777FE7B68DA687B681B7E1900DF
:103CB0001000FEF7DCFE7B685B691B685BB21800D6
:103CC000FFF74EFE7B680F22BA1812785A767B688F
:103CD0005B7E1800BD4605B090BD80B586B000AFD4
:103CE000786039607B689B7E1A003D4BD200D358C8
:103CF0003B613B685B791A0013005B009B189B00DB
:103D00001A003B699B183B6139683B690C2218001B
:103D100007F054FE7B689B7E314ADB00D3180433E6
:103D20001B683B613B681B791A0013005B009B1802
:103D30009B001A003B699B183B6139683B690C2268
:103D4000180007F03BFE3B681B68FB607B689B7EAE
:103D50005A01244BD318BB601623FB1801221A709A
:103D6000FB68002B38D07B685A7F1723FB181A702A
:103D700018E01723FB181B785BB29B00BA68D318B6
:103D80001B68FA689A4204D11623FB1800221A70A5
:103D90000DE017217B181B785BB2DBB2013BDAB276
:103DA0007B181A701723FB181B787F2BE1D9162379
:103DB000FB181B78002B0FD07B689B7E18007B685C
:103DC0005B7F5A1CD1B27A6851771900054BC2004B
:103DD00052189200F968D150C046BD4606B080BD69
:103DE000241F0020E01D002090B587B000AF786050
:103DF0007B689B7E314ADB00D31804331B683B6130
:103E00007B68DB681800FFF755FE00237B614DE0FF
:103E10007A6913005B009B189B001A003B699B1892
:103E2000FB60FB685B79FF2B3DD0FB685B791A1C5C
:103E30001F231340DAB208243B191F210A40100047
:103E40001A781F218A43111C021C0A431A70FB684E
:103E5000DA793B1901210A4050011A7820218A435E
:103E6000111C021C0A431A70FB685A7A3B19012183
:103E70000A4090011A7840218A43111C021C0A430F
:103E80001A70FB689A793B19D0011A787F210A4091
:103E9000111C021C0A431A707B68DB68BA681100A7
:103EA0001800FFF724FE7B6901337B617B69072BD8
:103EB000AED9C046C046BD4607B090BD241F002005
:103EC00080B586B000AF78607B68DA68C0235B009D
:103ED000D3583B6100237B6109E03A697B69DA4092
:103EE00013000122134006D17B6901337B617B699A
:103EF000072BF2D900E0C0467B69082B1FD07B68F6
:103F0000DB687A6911001800FFF70CFE7B689B7E66
:103F10001A000D4BD200D358FB607A6913005B0086
:103F20009B189B001A00FB689B18FB60FB681B7AC0
:103F3000002B04D0FB681B68BB60BB689847C04679
:103F4000BD4606B080BDC046241F002080B586B0A7
:103F500000AF78607B68DB681800FFF7D6FD7B68F0
:103F60009B7E5A010D4BD3183B617B685B7F013B05
:103F70007B610AE07B699B003A69D3181B68FB6090
:103F8000FB6898477B69013B7B617B69002BF1DA19
:103F9000C046C046BD4606B080BDC046E01D0020FC
:103FA00090B585B000AF3B1D054A13CA13C33B1D36
:103FB0001800FFF74FFAC046BD4605B090BDC04699
:103FC0005CBB001080B500AFC046BD4680BD0000A0
:103FD00080B582B000AF786039607B6880229A58E3
:103FE0003B681033012199400B001A437B68802104
:103FF0005A50C046BD4602B080BD80B582B000AF09
:1040000078600A00BB1C1A807B681B6C064A1A4049
:10401000BB1C1B881343802212021A437B681A645C
:10402000C046BD4602B080BDFFF3FFFF80B582B041
:1040300000AF78600A00FB1C1A707B681B6C0A4A90
:104040001340802212021A437B681A647B681A6C40
:10405000FB1C1B781343802212021A437B681A64EC
:10406000C046BD4602B080BDF07FFFFF80B582B084
:1040700000AF3B0004221A703B0000225A703B0044
:1040800016229A703B1D3A001188198092789A7016
:104090003A1D00231178FF200140FF2083430B438A
:1040A0005178FF2001400902064803400B439278F3
:1040B000FF210A40120404490B4013431800BD4677
:1040C00002B080BDFF00FFFFFFFF00FF80B584B09E
:1040D00000AF78607B681B7E022B5DD17B68DA685D
:1040E0007B689B6819001000FDF78EF90023FB60C8
:1040F00037E07B68FA689200D35818687B68FA68E2
:104100009200D3585B681900FDF735FB7B68FA68AD
:104110009200D3581B6803211800FDF7CCFB7B6885
:10412000FA689200D3581B7A01225340DBB2002B6D
:1041300006D07B68DB68FA6811001800FFF748FFBB
:104140007B681B69FA68D2B211001800FDF7AFFD59
:104150007B68FA689200D35800225A72FB680133D8
:10416000FB60FB68012BC4D97B681B690021180028
:10417000FFF75CFF7B681B6900211800FFF73DFF1C
:104180007B685B7E002B04D07B68DB681800FDF742
:104190008FF97B6800221A767B681B7E1800BD466B
:1041A00004B080BD80B582B000AF0200FB1D1A7064
:1041B000FB1D1B787F2B09D8FB1D1B781A001F23C2
:1041C0001A40044B012191400A001A60C046BD46C6
:1041D00002B080BD00E100E090B583B000AF020006
:1041E0003960FB1D1A70FB1D1B787F2B28D82F4AC6
:1041F000FB1D1B785BB29B08C0339B009B58FA1DCC
:104200001278110003220A40D200FF2191400A00D7
:10421000D2431A4011003B689B01FF221A40FB1D4C
:104220001B78180003230340DB009A401F48FB1D46
:104230001B785BB29B080A43C0339B001A5031E0E5
:104240001B4AFB1D1B7819000F230B40083B9B08E2
:1042500006339B00D31804331B68FA1D1278110033
:1042600003220A40D200FF2191400A00D2431A40A3
:1042700011003B689B01FF221A40FB1D1B781800B0
:1042800003230340DB009A400948FB1D1B781C00F8
:104290000F232340083B9B080A4306339B00C318A7
:1042A00004331A60C046BD4603B090BD00E100E093
:1042B00000ED00E080B582B000AF7860080011002A
:1042C000FB1C021C1A70BB1C0A1C1A70FB1C1B78FE
:1042D0007A6806339B00D31804331B680722934384
:1042E0001900BB1C1A78FB1C1B780A43796806333B
:1042F0009B00CB1804331A60C046BD4602B080BD97
:1043000080B582B000AF7860396039687B6801227F
:10431000180000F0DCFEC046BD4602B080BD80B58E
:1043200082B000AF78607B681B6C0F22934302223F
:104330001A437B681A64C046BD4602B080BD80B592
:1043400082B000AFFB1D00221A70304B30481A00BB
:10435000062100F085FD2F4B2F4A19001000FFF7B2
:10436000CFFF2D4B022200211800FFF7A3FF2A4B9D
:10437000002203211800FFF79DFF274B0022052193
:104380001800FFF797FF244801230422102101F0B1
:1043900049FB214800230422002101F073FB1E4B3E
:1043A0001800FFF7BCFF1D4B19481A00072100F049
:1043B00057FD194B01221021180001F0D1FB164BBB
:1043C00001221021180001F0E9FB134B00221021FB
:1043D000180001F006FC104B00221321180001F018
:1043E00000FC03210A20FFF7F7FE0A20FFF7DAFEA0
:1043F00003210920FFF7F0FE0920FFF7D3FEFB1D84
:104400001B781800BD4602B080BDC046F8BB001046
:1044100000000440A8BB001000020048B4BB00101C
:1044200080B500AF034B180000F062FBC046BD46EC
:1044300080BDC046A805002080B500AF034B180022
:1044400000F0DCFBC046BD4680BDC046A80500208C
:1044500080B582B000AF786039607B681A6C3B68C9
:104460001A437B681A64C046BD4602B080BD80B561
:1044700082B000AF786039607B681B6C3A68D243C9
:104480001A407B681A64C046BD4602B080BD80B544
:1044900082B000AF78607B689B6BDBB27F22934376
:1044A000DBB21800BD4602B080BD80B582B000AF5F
:1044B0007860396080235A023B689A407B689A662C
:1044C000C046BD4602B080BD80B582B000AF786006
:1044D0000A00FB1C1A70FB1C1A787B689A66C0469F
:1044E000BD4602B080BD80B582B000AF7860396053
:1044F0007A6884235B00D2583B681A4311007A68BB
:1045000084235B00D150C046BD4602B080BD80B55B
:1045100082B000AF786039607A6884235B00D3583A
:104520003A68D2431A4011007A6884235B00D15064
:10453000C046BD4602B080BD80B582B000AF786095
:104540007A688C235B0080210902D150C046BD46A9
:1045500002B080BD80B582B000AF78607A688A23EF
:104560005B00D25880235B0113405A1E9341DBB29B
:104570001800BD4602B080BD80B582B000AF786043
:104580007A688A235B00D25880231B0113405A1E8D
:104590009341DBB21800BD4602B080BD80B582B049
:1045A00000AF786039607A6886235B00D2583B6838
:1045B0001A4311007A6886235B00D150C046BD467D
:1045C00002B080BD80B582B000AF786039607A6893
:1045D00086235B00D3583A68D2431A4011007A68A8
:1045E00086235B00D150C046BD4602B080BD80B579
:1045F00082B000AF78607A688C235B008021C901AB
:10460000D150C046BD4602B080BD80B582B000AF7B
:1046100078607A688A235B00D358082213405A1EB8
:104620009341DBB21800BD4602B080BD80B582B0B8
:1046300000AF78607B681B6C0F22934302221A4301
:104640007B681A64C046BD4602B080BD80B582B0AA
:1046500000AF786039607B68DB6B054A1A403B68C5
:104660001B021A437B68DA63C046BD4602B080BDB8
:10467000FFE0FFFF80B582B000AF3B0004221A705C
:104680003B0001225A703B000E229A703B1D3A00FB
:104690001188198092789A703A1D00231178FF20B2
:1046A0000140FF2083430B435178FF200140090262
:1046B000064803400B439278FF210A401204044944
:1046C0000B4013431800BD4602B080BDFF00FFFF42
:1046D000FFFF00FFB0B584B000AF78600F217B18FA
:1046E00000221A707B685B685B680D007C18984735
:1046F000030023707B191B781800BD4604B0B0BDC1
:1047000090B587B000AFF860B9607A6017217B1868
:1047100004221A70FB685B6829229B5C002B09D17C
:104720007C187A68B968FB68180000F019F9030072
:10473000237000E0C0461723FB181B781800BD4605
:1047400007B090BD90B587B000AFF860B9607A60EF
:1047500017217B1804221A70FB685B682A229B5C75
:10476000002B09D17C187A68B968FB68180000F042
:104770005DF90300237000E0C0461723FB181B7887
:104780001800BD4607B090BD80B584B000AF78601A
:104790000F23FB1800221A707B689B6800221A7690
:1047A0007B689B6800221A607B685B6829229B5C9F
:1047B000002B22D17B685B682B229B5C002B0DD0E9
:1047C0007B681B688022D20511001800FFF79FFE4E
:1047D0007B681B681800FFF7AFFE07E07B681B686B
:1047E0008022920111001800FFF741FE7B681B68D0
:1047F00002211800FFF768FE04E00F23FB180422D3
:104800001A70C0460F23FB181B781800BD4604B071
:1048100080BD80B584B000AF78600F23FB18002204
:104820001A707B689B6800225A767B689B6800221E
:104830005A607B685B682A229B5C002B17D17B68DF
:104840005B682C229B5C002B08D07B681B68C02215
:10485000D20511001800FFF7B5FE0DE07B681B685C
:10486000C02212021100180000F08EFD04E00F2398
:10487000FB1804221A70C0460F23FB181B7818007F
:10488000BD4604B080BDB0B586B000AFF860B96079
:104890007A601723FB1802221A70FB685B685B6A58
:1048A0003B61FB689B681B7EDBB201225340DBB29D
:1048B000002B4ED0FB689B685B7EDBB2012253402D
:1048C000DBB2002B45D0FB685B6828229B5C022B87
:1048D00007D03B6918683B691B790022190000F07A
:1048E0004DFAFB681B68180000F00AFD031E2CD16E
:1048F000FB681B6817257C197A68B968180000F0F6
:1049000053FC030023707B191B78002B08D1FB6834
:104910001A687B685B08013319001000FFF796FEE8
:10492000FB681B681800FFF781FEFB685B682822A4
:104930009B5C022B0DD03B6918683B6919793B6978
:104940009B681A0000F08CFA03E01723FB18022280
:104950001A701723FB181B781800BD4606B0B0BDAF
:1049600080B586B000AFF860B9607A6017217B1817
:1049700004221A70FB689B683B61FB685B68292214
:104980009B5C002B4BD17B1802221A703B691B7E6B
:10499000DBB201225340DBB2002B40D0BB68002BBE
:1049A00039D07B68002B36D03B69BA681A603B6906
:1049B0007A689A603B690022DA603B6901221A76C4
:1049C000FB685B682B229B5C002B0DD0FB681B688F
:1049D0001800FFF7B1FDFB681B688022D2051100AB
:1049E0001800FFF780FD07E0FB681B68802292013A
:1049F00011001800FFF72CFD1723FB1800221A7076
:104A0000FB681A68FB685B682D215B5C190010006D
:104A1000FFF74BFD03E01723FB1803221A7017233F
:104A2000FB181B781800BD4606B080BD80B586B067
:104A300000AFF860B9607A6017217B1804221A7001
:104A4000FB689B683B61FB685B682A229B5C002BD0
:104A500047D17B1802221A703B695B7EDBB20122D0
:104A60005340DBB2002B3CD0BB68002B35D07B68B9
:104A7000002B32D03B69BA685A603B697A681A6188
:104A80003B6901225A763B6900225A61FB685B68E8
:104A90002C229B5C002B13D0FB681B681800FFF7CF
:104AA000A6FD7A68FB681100180000F03FF9FB686A
:104AB0001B68C022D20511001800FFF76FFD07E048
:104AC000FB681B68C022120211001800FFF7C0FC2F
:104AD0001723FB1800221A7003E01723FB18032288
:104AE0001A701723FB181B781800BD4606B080BD4E
:104AF00080B584B000AF78607B689B68FB60FB6822
:104B0000DA68FB689B689A423CD27B685B682B2220
:104B10009B5C002B24D016E0FB68DA68FB689B687E
:104B20009A4266D27B681868FB681A68FB68DB6883
:104B3000D3181B789BB2190000F094FBFB68DB686C
:104B40005A1CFB68DA607B681B681800FFF702FDDF
:104B500003001A0001235340DBB2002BDCD149E0F3
:104B60007B681868FB681A68FB68DB68D3181B78D9
:104B70009BB2190000F076FBFB68DB685A1CFB68EF
:104B8000DA6037E07B681B681800FFF7F5FC031E4E
:104B900030D07B685B682B229B5C002B08D07B6845
:104BA0001B688022D20511001800FFF7B0FC07E057
:104BB0007B681B688022920111001800FFF757FCE8
:104BC000C0467B681B681800FFF761FC0300802B60
:104BD000F7D0FB6800221A76FB6800221A607B6817
:104BE0005B689B68002B05D07B685B689B68984777
:104BF00000E0C046C046BD4604B080BD80B584B06C
:104C000000AF78607B689B68FB607B685B682C22E8
:104C10009B5C002B53D033E0FB685A69FB681B692F
:104C20009A4212D27B681B68180000F049FB03000F
:104C30001900FB685A68FB685B69D318CAB21A701E
:104C4000FB685B695A1CFB685A61FB685A69FB6820
:104C50001B699A4214D1FB6800225A767B681B6854
:104C6000C022D20511001800FFF7ACFC7B685B681E
:104C7000DB68002B11D07B685B68DB6898470CE031
:104C80007B681B681800FFF7C0FC03001A000123B3
:104C90005340DBB2002BBFD100E0C046FB685A692D
:104CA000FB681B699A423DD2FB681A69FB685B6925
:104CB000D21A7B681100180000F038F832E0FB6867
:104CC0005A69FB681B699A4212D27B681B681800FC
:104CD00000F0F6FA03001900FB685A68FB685B698C
:104CE000D318CAB21A70FB685B695A1CFB685A6118
:104CF000FB685A69FB681B699A4213D1FB68002262
:104D00005A767B681B68C022120211001800FFF758
:104D1000AEFB7B685B68DB68002B03D07B685B685D
:104D2000DB689847C046BD4604B080BD80B584B0FE
:104D300000AF786039600023FB607B685B682C22E1
:104D40009B5C1A0001239340BB603A68BB689A429F
:104D500003D23B68013BFB6002E0BB68013BFB60A8
:104D60007B6818687B685B682C229B5CFA6819007A
:104D700000F0D8FEC046BD4604B080BD80B582B00C
:104D800000AF786008001100FB1C021C1A70BB1CED
:104D90000A1C1A70FB1C1B789B08DBB21A007B688C
:104DA00004329200D358FA1C127803210A40D20030
:104DB000F82191400A00D243F91C09788908C9B248
:104DC00008001A4011007B68021D9200D150FB1CA4
:104DD0001B789B08DBB21A007B6804329200D25821
:104DE000BB1C1978FB1C1B7803200340DB00994097
:104DF0000B00F91C09788908C9B208001A43110090
:104E00007B68021D9200D150C046BD4602B080BDF5
:104E100080B582B000AF786008001100FB1C021C56
:104E20001A70BB1C0A1C1A707B685B6FFA1C127824
:104E30005200032191400A00D2431A407B685A670E
:104E40007B685A6FBB1C1978FB1C1B785B00994070
:104E50000B001A437B685A67C046BD4602B080BD4E
:104E600090B585B000AFF8607A600B243B190A1C3E
:104E70001A703B191B789B08DBB21A00FB680432DE
:104E80009200D3583A19127803210A40D200F8212F
:104E900091400A00D243391909788908C9B208003B
:104EA0001A401100FB68021D9200D150FB685B6F35
:104EB0003A1912785200032191400A00D2431A4055
:104EC000FB685A673B191B78DB08DBB21A00FB68EA
:104ED00010329200D3583A19127807210A409200F2
:104EE000042191400A00D24339190978C908C9B28E
:104EF00008001A401100FB68020010329200D150E5
:104F00003B191B78DB08DBB21A00FB6810329200F9
:104F1000D2587B685B7818003B191B7807210B403F
:104F20009B009840030039190978C908C9B20800E4
:104F30001A431100FB68020010329200D150FB6846
:104F40001F4A93420AD1FB681B6E3A19127801215D
:104F500091400A00D2431A40FB681A667B681B78AE
:104F60005BB2002B07DA7B685A680B23FB181B78AF
:104F70009A40FB685A600B217B181B789B08DBB2B8
:104F80001A00FB6804329200D2587B681B78180024
:104F90000C007B181B7803210B40DB0098400300BA
:104FA000391909788908C9B208001A431100FB6849
:104FB000021D9200D150C046BD4605B090BDC0460E
:104FC0000002044080B582B000AF78600800110094
:104FD000FB1C021C1A70BB1C0A1C1A70FB1C1B78E1
:104FE000DB08DBB21A007B6810329200D358FA1C3F
:104FF000127807210A409200042191400A00D2430E
:10500000F91C0978C908C9B208001A4011007B6868
:10501000020010329200D150FB1C1B78DB08DBB27F
:105020001A007B6810329200D258BB1C1978FB1C06
:105030001B78072003409B0099400B00F91C09785E
:10504000C908C9B208001A4311007B680200103277
:105050009200D150C046BD4602B080BD80B582B03E
:1050600000AF78607B689B6BDBB27F229343DBB23F
:105070001800BD4602B080BD80B582B000AF786038
:105080000A00FB1C1A707B681B6C0F2293431A00EA
:10509000FB1C1B781A437B681A64C046BD4602B0ED
:1050A00080BD80B582B000AF78607B689B6C1800D3
:1050B000BD4602B080BD80B582B000AF7860396077
:1050C0007B683A68DA64C046BD4602B080BD80B5F0
:1050D00086B000AFF860B960FB1D1A7010237B61C9
:1050E000FB68180000F0ABF9BB681B7A002B02D0FC
:1050F000BB681B7A7B61FB1D1B78002B13D0BB6840
:105100001B79002B08D0BB681B6819007A69FB6803
:10511000180000F045FA06E0BB6819687A69FB6878
:10512000180000F0C5F9BB68DB79013B5A007B69C8
:105130005B0801331B0213431A4A1A43FB68DA6304
:10514000BB685B79013B1B06812252001A43FB6856
:105150005A63BB689B79002B09D0FB685A6BBB680C
:105160009B79013B1B041A43FB685A6308E0FB6808
:105170005A6BBB685B79013B1B041A43FB685A639B
:10518000FB68A022D2009A63FB6801225242DA64D3
:10519000BB685B891A00FB681A64C046BD4606B04E
:1051A00080BDC0460100030090B587B000AFF86035
:1051B000B9607A6017243B1901221A70FEF7C2FA0F
:1051C00003009B08BA689A420DD87B68032B0AD962
:1051D0007A68B968FB68180000F06AF9031E02D10A
:1051E0003B1900221A701723FB181B781800BD46C4
:1051F00007B090BD90B587B000AFF860B9607A6035
:105200001A00FB1C1A70FEF79DFA03009B08BA688F
:105210009A421CD87B68032B19D9FB1C1B78002BE6
:105220000AD0B9687A681723FC18FB68180000F0E8
:10523000B7F9030023700EE01723FC187A68B968E9
:10524000FB68180000F034F90300237003E0172313
:10525000FB1801221A701723FB181B781800BD4693
:1052600007B090BD80B582B000AF78600A00BB1C6B
:105270001A807A6884235B00D258E023DB04134051
:1052800014D1C0467B681800FFF7E8FE0300802BAE
:10529000F8D080239A017B6811001800FFF70BFFFC
:1052A000BB1C1A887B6880215A5005E0BB1C1988FA
:1052B0007A68C0235B00D150C046BD4602B080BDB5
:1052C00080B584B000AF78607A6886235B00D258DE
:1052D000E023DB04134005D17B685A6D0E23FB18D5
:1052E0001A8006E07A688E235B00D2580E23FB18E2
:1052F0001A800E23FB181B881800BD4604B080BD21
:1053000080B584B000AF78600F23FB1800221A70BC
:105310007B681800FFF7A2FE03005BB2002B08DBDE
:105320007B681800FFF7BDFE020080239B0013403E
:1053300004D00F23FB1802221A7004E07B680021BE
:105340001800FFF799FE0F23FB181B781800BD46C5
:1053500004B080BD80B582B000AF786039607B68F2
:105360001A6C3968FE235B020B401A437B681A648F
:105370007B68DA6B3B68F8210B401A437B68DA6381
:10538000C046BD4602B080BD80B582B000AF786037
:1053900039607B681B6C3968FE2252020A40D24396
:1053A0001A407B681A647B68DB6B3A68F8210A4014
:1053B000D2431A407B68DA63C046BD4602B080BD66
:1053C00080B582B000AF786008001100FB1C021CA1
:1053D0001A70BB1C0A1C1A70FB1C1B787A680633F7
:1053E0009B00D31804331B68094A13401900BB1CE7
:1053F0001B789A02FB1C1B780A43796806339B00D2
:10540000CB1804331A60C046BD4602B080BDC0460A
:10541000FFF3FFFF80B582B000AF78600A00FB1C8D
:105420001A707B685B69032293431A00FB1C1B788C
:105430001A437B685A61C046BD4602B080BD80B544
:1054400082B000AF78607A689023DB059A4203D07F
:105450007B680D4A934203D10C4B180000F0E4FB2B
:105460007B680322DA60C0467B68DB680122134058
:10547000FAD07B681B6C0F2293431A007B681A6476
:10548000C046BD4602B080BD00020048080000488A
:1054900080B582B000AF78607B68DB6803229343FD
:1054A00002221A437B68DA60C046BD4602B080BD66
:1054B00080B58EB000AFF860B9607A60BB68632BCE
:1054C0005FD97B68002B5CD0FEF73CF903006421B8
:1054D000180005F03BFB03003B62BB686421180029
:1054E00005F034FB0300BB608023DB00FB6201237B
:1054F000BB62294B7B628023DB003B6324E03B6A79
:105500003A6B5A431000BB687A685343190005F0A0
:105510001DFB0300FB61FB699B0ABB61FB699B05EB
:105520009B0D7B61BA698023DB009A4209D87A69B6
:105530007B6A9A4205D27B697B62BB69BB623B6B2B
:10554000FB623B6B013B3B633B6B002BD7D1FB6AA0
:10555000013B802212021A43FB681A61FB685B69F7
:105560000E4A1A407B68013B9B021A43BB6A013B0F
:105570001B041A43FB685A613723FB1800221A7078
:1055800003E03723FB1801221A703723FB181B781E
:105590001800BD460EB080BDFF030000EF8000FC88
:1055A00080B58CB000AFF860B9607A60FEF7CAF8D9
:1055B00003003B62BB687A685343FB610123FB62D3
:1055C0003A6AFB699A4260DDF969386A05F048FB7E
:1055D0000300BB620FE0FB6A0133FB62BB687A68C1
:1055E00053431A00FB6A5343FB61F969386A05F0BB
:1055F00037FB0300BB62BB6A294A9342EBD8386A87
:105600007B68BA6A5343FA6A5343190005F09EFA5D
:105610000300BB61386ABB6A01337A685343FA6A94
:105620005343190005F092FA03007B61BA687B6965
:10563000D31AD9175A184A40B968BB69CB1AD91777
:105640005B184B409A4202DABB6A0133BB62BB6A09
:105650008022D200D31ABB62BB6A8022D2011A43D5
:10566000FB681A61FB685B690E4A1A407B68013B64
:105670009B021A43FB6A013B1B041A43FB685A61F5
:105680002723FB1800221A7003E02723FB180122AE
:105690001A702723FB181B781800BD460CB080BD7C
:1056A000FE030000EF8000FC90B587B000AFF8600B
:1056B000080011007B600B243B19021C1A700A20A1
:1056C0003B180A1C1A70FB685B697B617B69134A93
:1056D00013407B613B191A783B181B78002B01D0D3
:1056E000102300E000231A437B681B041A43202385
:1056F00008218C46BC4463441B781A43FB6A1B0296
:105700001A433B6B9B0213437A6913437B61FB682B
:105710007A695A61C046BD4607B090BD2C8000FC36
:1057200090B587B000AF78607B685B69C02213409A
:10573000C02B02D102237B611EE07B685B691022D3
:10574000134001D0022300E001237B617B685B6989
:105750004022134010D17B685B691B0C9B059B0D9D
:105760005A1C7B6953437B617B685B6980221340D1
:1057700002D07B695B007B617B685B691B0A03224B
:1057800013405A1C7B6953437B617B685B699B0AAE
:105790001F2213405A1C7B6953437B61FDF7D2FFE4
:1057A0000300FB607B681A69C0231B021A40802338
:1057B0001B029A4218D1F86805F08CFF041C7B6824
:1057C0001B699B059B0D180005F084FF031C8921B4
:1057D000C905181C05F070FB031C191C201C05F0E2
:1057E00077FC031C3B611AE0F86805F073FF041CAA
:1057F0007B681B699B059B0D8022D200D31A180081
:1058000005F068FF031C191CFE20800505F054FB01
:10581000031C191C201C05F05BFC031C3B61786910
:1058200005F058FF031C191C386905F045FB031CE3
:105830003B61386905F028FB03001800BD4607B03E
:1058400090BD90B587B000AF78607B685B6910222F
:10585000134001D0022300E001233B617B685B69B8
:105860001B0C9B059B0D5A1C3B6953433B613B69D9
:105870005B003B61FDF766FF0300FB607B681A6914
:10588000C0231B021A4080231B029A4218D1F868D9
:1058900005F020FF041C7B681B699B059B0D18000D
:1058A00005F018FF031C8921C905181C05F004FB2D
:1058B000031C191C201C05F00BFC031C7B611AE067
:1058C000F86805F007FF041C7B681B699B059B0DAE
:1058D0008022D200D31A180005F0FCFE031C191C0C
:1058E000FE20800505F0E8FA031C191C201C05F0B9
:1058F000EFFB031C7B61386905F0ECFE031C191CEF
:10590000786905F0D9FA031C7B61786905F0BCFA67
:1059100003001800BD4607B090BD90B585B000AF3C
:105920007860FDF70FFF0300BB607B681A69C02336
:105930001B021A4080231B029A421BD1B86805F053
:10594000C9FE041C7B681B699B059B0D8022D2004D
:10595000D31A180005F0BEFE031C191CFE2080059A
:1059600005F0AAFA031C191C201C05F0B1FB031C4E
:10597000FB6017E0B86805F0ADFE041C7B681B698E
:105980009B059B0D180005F0A5FE031C8921C90588
:10599000181C05F091FA031C191C201C05F08CFA48
:1059A000031CFB608021C905F86805F085FA031C1B
:1059B000FB60F86805F068FA03001800BD4605B002
:1059C00090BDB0B584B000AFF86008007A601900EF
:1059D0000A243B19021C1A8009257B190A1C1A701B
:1059E000FB6802211800FFF715FD7B191A78FB6888
:1059F00001211800FFF7E4FCFB685B69084A1A40C4
:105A00007B68013B9B021A433B191B88013B1B042B
:105A10001A43FB685A61C046BD4604B0B0BDC046DB
:105A2000EF8000FC80B584B000AFF860B9603B60E7
:105A3000FB1D1A70FA6884235B00D3580F4A134089
:105A40001900FA6884235B00D150FA6884235B0054
:105A5000D3580B4A1A403B681902BB681943FB1D17
:105A60001B781B060B431A431100FA6884235B0062
:105A7000D150C046BD4604B080BDC046FFFFFFF810
:105A8000C0C0FFF880B584B000AFF860B9603B607B
:105A9000FB1D1A70FA6886235B00D358104A134026
:105AA0001900FA6886235B00D150FA6886235B00F0
:105AB000D3580C4A1A403B681902BB681943FB1DB6
:105AC0001B781B060B431343802252051A43110017
:105AD000FA6886235B00D150C046BD4604B080BD45
:105AE000FFFFFFF8C0C0FFEF80B584B000AFF860E3
:105AF0007A600B23FB180A1C1A70FA6884235B0077
:105B0000D358074A1A407B681B021A431100FA68EF
:105B100084235B00D150C046BD4604B080BDC04662
:105B2000FFC0FFFF80B584B000AFF8607A600B2340
:105B3000FB180A1C1A70FA6886235B00D358074AC0
:105B40001A407B681B021A431100FA6886235B0027
:105B5000D150C046BD4604B080BDC046FFC0FFFF67
:105B600080B584B000AFF8607A600B203B180A1C47
:105B70001A70FB689B693A181278072191400A0055
:105B8000D2431A403B181B78796899400B001A439E
:105B9000FB689A61C046BD4604B080BD80B584B044
:105BA00000AFF8607A600B203B180A1C1A70FA6884
:105BB00084235B00D3583A181278072191400A00D9
:105BC000D2431A403B181B78796899400B001A435E
:105BD0001100FA6884235B00D150C046BD4604B072
:105BE00080BD80B584B000AFF8607A600B203B18B0
:105BF0000A1C1A70FA6886235B00D3583A18127888
:105C0000072191400A00D2431A403B181B7879685B
:105C100099400B001A431100FA6886235B00D150AB
:105C2000C046BD4604B080BD80B582B000AF78608C
:105C30007B68084A934208D10820FDF77DFCC046E6
:105C40000820FDF797FC031EFAD1C046BD4602B0FE
:105C500080BDC0460800004880B582B000AF7860C3
:105C60007B68054A934202D10820FDF74DFCC046EF
:105C7000BD4602B080BDC0460800004880B582B075
:105C800000AF78607B6880225200DA60C046BD4673
:105C900002B080BD80B582B000AF3B0004221A7014
:105CA0003B0001225A703B000E229A703B1D3A00C5
:105CB0001188198092789A703A1D00231178FF207C
:105CC0000140FF2083430B435178FF20014009022C
:105CD000064803400B439278FF210A40120404490E
:105CE0000B4013431800BD4602B080BDFF00FFFF0C
:105CF000FFFF00FF80B582B000AF78607B685B7B00
:105D000001225340DBB2002B0FD07B689A687B687E
:105D10001B7B1900100000F06BF87B689B68180073
:105D2000FFF7ACFF7B6801225A7300231800BD46C1
:105D300002B080BD80B582B000AF78607B68802201
:105D40005200DA60C046BD4602B080BD80B582B068
:105D500000AF78607B6801221A61C046BD4602B080
:105D600080BD80B582B000AF78600A00FB1C1A705D
:105D7000FB1C1A787B681A62C046BD4602B080BD23
:105D800080B582B000AF78607A68A023DB059A42C4
:105D900002D10220FDF7B8FBC046BD4602B080BD6F
:105DA00080B582B000AF78607A68A023DB059A42A4
:105DB00002D10220FDF7C0FBC046BD4602B080BD47
:105DC00080B582B000AF78607B681800FFF7E8FF0D
:105DD000C046BD4602B080BD80B582B000AF7860DD
:105DE0007B681800FFF7CCFFC046BD4602B080BDFF
:105DF00080B584B000AF78600A00FB1C1A707B6825
:105E00001800FFF7DDFF7B681800FFF793FF7B6842
:105E10001B68FB60FB68084A1340FB60FB1C1B7897
:105E20009B03FA681343FB607B68FA681A60C046FC
:105E3000BD4604B080BDC046FF3FFFFF80B584B0C3
:105E400000AF78600A00FB1C1A707B681B68FB605F
:105E5000FB6830229343FB60FB1C1B781B01FA6834
:105E60001343FB607B68FA681A60C046BD4604B005
:105E700080BD80B582B000AF786039607B68180063
:105E8000FFF764FF3B681A687B685A613B685B7B7D
:105E9000DB06DB0FDBB21A057B685A603B681B7BB5
:105EA0001B071B0FDBB21A007B685A623B681B7B27
:105EB0001B061B0FDBB21A007B68DA623B685B7B58
:105EC0001B071B0FDBB21A007B681A623B685A681B
:105ED0007B689A613B689B6814225A407B689A648D
:105EE000C046BD4602B080BD80B582B000AF7860CC
:105EF00039607B681800FFF729FF3B681A687B68E8
:105F00005A613B685B79DB07DB0FDBB21A057B6804
:105F10005A603B681B791B061B0FDBB21A007B68BB
:105F2000DA623B681B791B071B0FDBB21A007B6828
:105F30005A62C046BD4602B080BD80B584B000AF95
:105F4000786039607B689B6CFB603B681B0CDA43B4
:105F5000FB681340FB603B681B041B0CFA6813438F
:105F6000FB607B68FA689A64C046BD4604B080BD99
:105F700080B584B000AF786039607B681B68FB60D7
:105F80003B681B0CDA43FB681340FB603B681B0457
:105F90001B0CFA681343FB607B68FA681A60C04602
:105FA000BD4604B080BD80B584B000AF7860080005
:105FB0001100FB1C021C1A70BB1C0A1C1A707B68A7
:105FC0005B68BB60BB6803229343BB60FB1C1B7810
:105FD000BA681343BB607B68BA685A607B685B69C8
:105FE000FB60BB1C1B78012B05D1FB688022D20013
:105FF0001343FB6003E0FB68044A1340FB607B68CB
:10600000FA685A61C046BD4604B080BDFFFBFFFF81
:1060100080B584B000AF786008001100FB1C021C42
:106020001A70BB1C0A1C1A707B685B68FB60FB68FB
:106030000C229343FB60FB1C1B789B00FA68134304
:10604000FB607B68FA685A607B685B69BB60BB6811
:10605000074A1340BB60BB1C1B781B02BA68134382
:10606000BB607B68BA685A61C046BD4604B080BD5B
:10607000FFFCFFFF80B584B000AF78600A00FB1C16
:106080001A707B685B68FB60FB68084A1340FB6022
:10609000FB1C1B781B03FA681343FB607B68FA68E0
:1060A0005A60C046BD4604B080BDC046FFCFFFFF6A
:1060B00080B584B000AF78600A00FB1C1A707B6862
:1060C0005B69FB60FB6880229343FB60FB1C1B78D1
:1060D000DB01FA681343FB607B68FA685A61C046CB
:1060E000BD4604B080BD90B585B000AF78600C00AF
:1060F00010001900FB1C221C1A70BB1C021C1A7019
:106100007B1C0A1C1A707B685B68BB60BB681E4AFC
:106110001340BB60FB1C1B789B04BA681343BB6035
:106120007B68BA685A607B685B69FB60BB1C1B7844
:10613000012B05D1FB68802252041343FB6003E06E
:10614000FB68124A1340FB602023FB181B78002BCE
:1061500005D0FB68802212041343FB6003E0FB6858
:106160000B4A1340FB60FB680A4A1340FB607B1C30
:106170001B78DB06FA681343FB607B68FA685A6198
:10618000C046BD4605B090BDFFFFF3FFFFFFFFFE19
:10619000FFFF7FFFFFFFFFE780B584B000AF7860AF
:1061A0000A00FB1C1A707B685B68FB60FB68084A8E
:1061B0001340FB60FB1C1B789B03FA681343FB60D6
:1061C0007B68FA685A60C046BD4604B080BDC046D0
:1061D000FF3FFFFF80B584B000AF78600A00FB1C72
:1061E0001A707B685B68FB60FB68084A1340FB60C1
:1061F000FB1C1B781B02FA681343FB607B68FA6880
:106200005A60C046BD4604B080BDC046FFFCFFFFDB
:1062100080B584B000AF78600A00FB1C1A707B6800
:106220005B68FB60FB6830229343FB60FB1C1B78C0
:106230001B01FA681343FB607B68FA685A60C0462A
:10624000BD4604B080BD80B584B000AF78600A0060
:10625000FB1C1A707B685B68FB60FB68C022934381
:10626000FB60FB1C1B789B01FA681343FB607B6897
:10627000FA685A60C046BD4604B080BD80B584B09F
:1062800000AF78600A00FB1C1A707B685B68FB60DB
:10629000FB68084A1340FB60FB1C1B789B02FA68F2
:1062A0001343FB607B68FA685A60C046BD4604B081
:1062B00080BDC046FFF3FFFF80B584B000AF7860BB
:1062C0007B685B68FB60FB68074A1340FB60FB6808
:1062D000802252021343FB607B68FA685A60C04612
:1062E000BD4604B080BDC046FFFFFEFF80B584B050
:1062F00000AF786008001100FB1C021C1A70BB1C68
:106300000A1C1A707B685B68BB60BB68184A134044
:10631000BB60BB68802292021343BB607B68BA6893
:106320005A607B685B69FB60BB1C1B78002B05D047
:10633000FB68802292031343FB6003E0FB680D4A75
:106340001340FB60FB1C1B78012B05D1FB688022EE
:10635000D2031343FB6003E0FB68074A1340FB6072
:106360007B68FA685A61C046BD4604B080BDC0462D
:10637000FFFFFDFFFFFFDFFFFFFFBFFF80B586B020
:1063800000AFF860B9607A60FB681B687B617B696D
:106390002A4A13407B61BB685B789B047A6913438C
:1063A0007B617B69264A13407B617B685B781B05B8
:1063B0007A6913437B617B69224A13407B61BB6826
:1063C0009B78DB057A6913437B617B691E4A134026
:1063D0007B617B689B781B067A6913437B617B69D1
:1063E0001A4A13407B61BB68DB78DB067A6913438A
:1063F0007B617B69164A13407B617B68DB785B07B6
:106400007A6913437B617B69F02293437B61BB68AC
:106410001B781B017A6913437B617B690D4A13402A
:106420007B617B681B781B027A6913437B61FB6885
:106430007A691A60C046BD4606B080BDFFFFF3FF13
:10644000FFFFCFFFFFFF7FFFFFFFFFFEFFFFFFE725
:10645000FFFFFF9FFFF0FFFF90B589B000AFF8602E
:106460007A600B243B190A1C1A701F203B183A193A
:106470001278013A1A70FB681B68BB613B181B78E5
:10648000DB18DAB217217B1810321A707B181B78D0
:1064900003229A401300DA43BB691340BB617B6857
:1064A0005B781A007B181B789A401300BA69134373
:1064B000BB617B183A18127816321A707B181B7859
:1064C00001229A401300DA43BB691340BB617B6829
:1064D0009B781A007B181B789A401300BA69134303
:1064E000BB613B181B78DB18DAB27B1819321A70C3
:1064F0007B181B7803229A401300DA43BB691340D0
:10650000BB617B68DB781A007B181B789A4013000C
:10651000BA691343BB617B183A18127892001A705B
:106520007B181B780F229A401300DA43BB69134093
:10653000BB617B681B781A007B181B789A4013009C
:10654000BA691343BB61FB68BA691A60C046BD46AD
:1065500009B090BD80B584B000AF7860080011002C
:10656000FB1C021C1A70BB1C0A1C1A700F203B1863
:10657000FA1C1278013A1A700E217B183A18127818
:1065800092001A707B681B68BB607B181B780F2217
:106590009A401300DA43BB681340BB60BB1C1A78F7
:1065A0007B181B789A401300BA681343BB607B6862
:1065B000BA681A60C046BD4604B080BD80B584B0DC
:1065C00000AF78600A00FB1C1A707B685B69FB6097
:1065D000FB1C1B78002B04D1FB6802229343FB6059
:1065E00003E0FB6802221343FB607B68FA685A6190
:1065F000C046BD4604B080BD80B584B000AF7860B1
:106600000A00FB1C1A707B685B69FB60FB1C1B7833
:10661000002B04D1FB6801229343FB6003E0FB687D
:1066200001221343FB607B68FA685A61C046BD468D
:1066300004B080BD80B582B000AF78600A00BB1C9A
:106640001A80BB1C1A887B685A63C046BD4602B0DC
:1066500080BD80B582B000AF78600A00FB1C1A7064
:10666000FB1C1B787A681C339B00D31804331B680F
:106670001800BD4602B080BD80B586B000AFF8609E
:106680007A600B23FB180A1C1A701723FB180122CF
:106690001A70FB685B691022134008D01523FB18A1
:1066A00000221A701423FB1804221A7015E00B2321
:1066B000FB181B78012B08D11523FB1802221A7036
:1066C0001423FB1804221A7007E01523FB1800227C
:1066D0001A701423FB1802221A701623FB181522B5
:1066E000BA1812781A7021E016217B181B78FA6804
:1066F0001C339B00D31804331A6880235B031340B8
:106700000ED07B181B78FA681C339B00D318043317
:106710001A687B681A601723FB1800221A700DE0B4
:1067200016217B181A787B1801321A701623FA1872
:106730001423FB1812781B789A42D5D31723FB1821
:106740001B781800BD4606B080BD80B584B000AF90
:1067500078600A00FB1C1A70FB1C1B78002B04D10C
:106760007B68B8229B58FB6003E07B68BC229B5887
:10677000FB60FB681800BD4604B080BD90B585B0D5
:1067800000AF78600C0010001900FB1C221C1A706E
:10679000BB1C021C1A707B1C0A1C1A707B685B698C
:1067A000FB60FB68114A1340FB60FB1C1B78002B4D
:1067B00004D0FB68802292011343FB60BB1C1B7852
:1067C000002B04D0FB688022D2011343FB607B685E
:1067D000FA685A617B1C1A787B6811001800FFF771
:1067E000C0FAC046BD4605B090BDC046FF9FFFFF42
:1067F00080B584B000AF78600A00FB1C1A707B681B
:106800009B6AFB60FB680A4A1340FB60FB1C1B7819
:106810001B02FA681343FB607B68FA689A62FB1CF0
:106820001A787B685A62C046BD4604B080BDC04637
:10683000FFF0FFFF80B582B000AF78600800110064
:10684000FB1C021C1A703B000A1C1A80FB1C1B78E4
:10685000002B04D13B001A887B68DA6303E03B001D
:106860001A887B685A64C046BD4602B080BD80B5B8
:1068700084B000AF78600A00FB1C1A70FB1C1B7808
:10688000002B05D17B689A6B0E23FB181A8004E05D
:106890007B681A6C0E23FB181A800E23FB181B88CA
:1068A0001800BD4604B080BD80B586B000AF7860EA
:1068B00008001100FB1C021C1A70BB1C0A1C1A7079
:1068C000FB1C1B780B2B25D89A00234BD3181B6875
:1068D0009F4603237B6100233B6120E00C237B6107
:1068E00002233B611BE030237B6104233B6116E004
:1068F000C0239B007B6108233B6110E0C0231B0188
:106900007B610A233B610AE0C0239B017B610C236E
:106910003B6104E000237B6100233B61C0467B694F
:10692000002B14D07B68A8229B58FB607B69DA435C
:10693000FB681340FB60BB1C1A783B699A4013004C
:10694000FA681343FB607B68A821FA685A50C04676
:10695000BD4606B080BDC04600BC001080B584B006
:1069600000AF786008001100FB1C021C1A70BB1CF1
:106970000A1C1A707B689B69FB60FB1C1B78DA435E
:10698000FB681340FB60BB1C1B78FA1C1278520892
:10699000D2B29340FA681343FB607B68FA689A614D
:1069A000C046BD4604B080BD80B582B000AF7860FF
:1069B00039603B685A687B681A653B689A687B68EF
:1069C0005A653B681A687B68DA64C046BD4602B007
:1069D00080BD80B582B000AF78600A00FB1C1A70E1
:1069E0007B68DB6C3F2293431A007B68DA647B6828
:1069F000DA6CFB1C1B781A437B68DA64C046BD4620
:106A000002B080BD90B583B000AF78600C0010007C
:106A10001900FB1C221C1A70BB1C021C1A707B1C68
:106A20000A1C1A70FB1C1B78002B08D17B1C1B78DE
:106A30001A02BB1C1B781A437B681A6507E07B1C93
:106A40001B781A02BB1C1B781A437B685A65C04628
:106A5000BD4603B090BD80B582B000AF78600A003B
:106A6000FB1C1A707B68DB6CC02293431A007B68A6
:106A7000DA647B68DA6CFB1C1B789B011A437B6829
:106A8000DA64C046BD4602B080BD80B582B000AFBA
:106A900078600A00FB1C1A707B685B69074A1A4021
:106AA0007B685A617B685A69FB1C1B785B071A4339
:106AB0007B685A61C046BD4602B080BDFFFFFF9FA4
:106AC00080B582B000AF78600A00FB1C1A70FB1C16
:106AD0001B7801229A407B68DA60C046BD4602B04E
