:020000041000EA
:101000004805002019100010000000009910001081
:1010100000040100000100001149124A124B00F0C7
:1010200018F8124880471249124A134B00F011F881
:101030001249134A134B00F00CF81349134A0020CD
:10104000521A02DD043A8850FCDC114880471148EE
:1010500080479B1A03DD043BC858D050FBDC704727
:10106000D89900100C00002044010020E910001065
:10107000109B0010480500204C0B002014A100100C
:10108000500B00209818002098180020201A0020EB
:1010900089320010ED2F0010FEE700000C4B0D4AC6
:1010A000196810B50904090E11601B680A4ADBB201
:1010B00013600A4C002907D00902C918084800F03B
:1010C00053FA4000206001E0064B236010BDC0468B
:1010D000000301409C18002098180020FC3F0020CD
:1010E000000024F40048E80108B501F043FE01F0D7
:1010F00049FE08BDF7B503250C1C2C40AC400194FB
:10110000F824019E8B08B4409B00C3181F69042675
:10111000A7431F614F00BD40446FAC4307250D40FE
:10112000AD00AE404467CC08A4000419276CB74357
:1011300027645678276CAE40351C3D4325640A4C25
:10114000A04204D101258D40046EAC43046614789E
:1011500065B2002D02DA52688A40426001991A692C
:101160008C4014431C61F7BD00020440C022034BB5
:101170005A625A6A5207FCD47047C04600000140C8
:1011800010B5041CFFF7F2FF054B186920431861E6
:101190001A685200FCD4C322024B5A6210BDC046EA
:1011A0000003014000000140034B9B681840431EB0
:1011B0009841C0B27047C04600030140F8B50D1C0D
:1011C000041CFFF7D3FF204B20491A68186812044B
:1011D00008401F49120E0843284318601868400051
:1011E000FCD41C4DA600A2421AD89000A0420DD2F9
:1011F000002A00D1013218689200284008431602E4
:101200003043186018684000FCD4EEE71A682402E6
:101210002A401143214319600CE018684000FCD4B7
:10122000B242F3D91868920828400843170238439D
:101230001860F2E71A685200FCD4C322064B5A62C7
:10124000FFF72CFFF8BDC0460003014000FF0FC0B0
:101250000000F03FFF000FC00000014010B5041C6B
:10126000FFF784FFA2686168074811430368074AD3
:101270001340C3220B430360054B5A626078217808
:10128000FFF79CFF10BDC04600030140FFFFF0FFC9
:1012900000000140014B18687047C046FC3F002029
:1012A00038B5094B041C0D1C984202D10420FFF7ED
:1012B00067FF80235B00E3602168044B0B40A903B8
:1012C0001943216038BDC04600000448FF3FFFFFBE
:1012D0000B6843614B799B06DB0F1B0543600B7961
:1012E0001B071B0F43624B791B071B0F03624B79D4
:1012F000DB06DB0F83610B791B09C36270470B6848
:1013000043614B79DB07DB0FDBB21B0543600B79D5
:101310001B071B0F43620B791B09C3627047000058
:1013200010B503244368A343194341604369012A6C
:1013300003D18022D200134301E0024A13404361EB
:1013400010BDC046FFFBFFFFC022436889019343E5
:10135000194341607047F7B503274E1EF6B274007B
:10136000E4B2251C0191391C1035EDB2A940036887
:1013700019348B435178E4B2A94001250B430199FC
:10138000A7401531C9B28D40AB439578B6008D406A
:101390002B43D578F1B2A5400F2412788C408A40B7
:1013A000BB432B43A34313430360F7BD826A034B44
:1013B00013400A021343836241627047FFF0FFFF4C
:1013C00010B50B290CD8074B5C56074B4900C95A7E
:1013D000002905D0A240A83003688B431A4302605D
:1013E00010BDC046408C00104C8C001038B5A023B6
:1013F000041C0D1CDB05984202D10220FFF7C0FE41
:1014000080235B00E3602168024B0B40A903194372
:10141000216038BDFF3FFFFF0123142203610B68E9
:1014200043614B7BDB06DB0F1B0543600B7B1B071C
:101430001B0F43620B7B1B09C3624B7B1B071B0FFC
:1014400003624B6883618B68534083647047836C8D
:101450000A0C934389B219438164704710B5032481
:101460004368A343194341604369012A03D18022A1
:10147000D200134301E0024A1340436110BDC0464D
:10148000FFFBFFFF802310B544689B0223434360AA
:101490004369002A03D080229203134301E0064AE5
:1014A0001340012903D18022D203134301E0034AF0
:1014B0001340436110BDC046FFFFDFFFFFFFBFFFCA
:1014C000F7B503274E1EF6B27400E4B2251C019155
:1014D000391C1035EDB2A940036819348B4351789B
:1014E000E4B2A94001250B430199A7401531C9B2C7
:1014F0008D40AB439578B6008D402B43D578F1B243
:10150000A5400F2412788C408A40BB432B43A34351
:1015100013430360F7BD41637047002901D1C263E3
:1015200000E0426470474B6803658B6843650B6855
:10153000C36470474269044B4907134043614369E0
:10154000194341617047C046FFFFFF9F10B5032458
:1015500049008A408C40111C436FA3434367436F8B
:101560001943416710BD000010B5EFF3108272B649
:101570000424044B5C6318625962986A82F31088F1
:1015800010BDC0460000034010B5EFF3108272B6E4
:101590000024044B5C6318625962986A82F31088D5
:1015A00010BDC0460000034010B5EFF3108272B6C4
:1015B0000424044B5C6318625962D96A986A82F306
:1015C000108810BD0000034010B5EFF3108272B612
:1015D0000024044B5C6318625962D96A986A82F3EA
:1015E000108810BD0000034008B5034B984202D19B
:1015F0008020FFF7C5FD08BD0000015038B5041C70
:101600000D1CFFF7F1FF0323E3602B68236038BD57
:101610000323021C006803400120002B04D1106842
:1016200009680143181C1160704710B5012410317E
:101630008C408A40436FA3431343436710BD0000AF
:10164000F8B50E1C041C171C00F06AF8337A10253C
:10165000002B00D01D1C002F0AD03379201C3168CC
:101660002A1C002B02D000F0C1F801E000F070F855
:10167000F379134A013B5B00134381226D08013566
:101680002D021D43E56373795200013B1B06134392
:101690006363B379002B04D0626B013B1B041343DB
:1016A00004E07279616B531E1B040B436363A02338
:1016B000DB00A36301235B42E36473892364F8BD09
:1016C00001000300031CFC33DA68E023DB041A4248
:1016D0000BD17F22836B9343DBB2802BF9D0802325
:1016E0009B01C3640430C16702E0C0235B00C150AA
:1016F0007047031CE022FC331969D204114201D166
:10170000406D00E0186A80B2704708B50820FFF706
:1017100037FD0820FFF748FD0028FAD108BD00007A
:10172000902310B5DB05041E9C4202D0074B984263
:1017300001D1FFF7EAFF0323E360E368DB07FCD591
:101740000F22236C9343236410BDC046000200485F
:10175000F0B5012487B0632940D9002A3ED00E1C81
:101760000492051CFFF796FD6421FFF7FDFE80271C
:1017700003906421301CFFF7F7FEFF0001943C1C2E
:10178000049B43430593039B9E02164B0293301C1C
:101790000599FFF7E9FE8022830AD200934207D819
:1017A000029A8005800D904202D2271C029001937C
:1017B000039B013CF61A002CE9D180227B1E120209
:1017C00013432B61049B6969074A013B9B020A4052
:1017D0001A43019B013B1B041A436A61201C07B09A
:1017E000F0BDC046FF030000EF8000FCF0B585B0FF
:1017F0000192071C0391FFF74DFD019B039A061C04
:10180000534301240093984245DD191CFFF7BCFEA9
:10181000009B051CA3400293204B9D420AD9301C1B
:101820000299FFF7B1FE009A029B94460134051C11
:101830006344F0E701996B1C6143301C59430093EA
:10184000FFF792FE211C039B6943181AC2178318E5
:1018500053400293019B301C5943FFF785FE039BC5
:10186000181AC317C0185840029B834200DA009D23
:101870008023DB005D1B8023DB011D433D61019B59
:101880007969074A013B9B020A40013C1343240447
:101890001C437C610024201C05B0F0BDFE03000049
:1018A000EF8000FCFC3030B5C568064C12062C40B9
:1018B000C460C568044C1B022C4021430A431343F7
:1018C000C36030BDFFFFFFF8C0C0FFF8FC3030B58B
:1018D0000569084C12062C4004610469064D1B0280
:1018E0002540802464052C4321430A4313430361AC
:1018F00030BDC046FFFFFFF8C0C0FFEFFC300169FC
:10190000024B12020B401A4302617047FFC0FFFFF7
:1019100010B507248C408A408369A3431343836135
:1019200010BD10B507248C408A40FC30C368A34327
:101930001343C36010BD10B507248C408A40FC30AF
:101940000369A3431343036110BD0000FF2208B5E0
:10195000024B01201A60FFF713FC08BD000501408F
:1019600038B5041C0D1CFFF7F1FF231C6A6904C382
:101970008022696812020A43DA67231CAA68A0332E
:101980001A60EA685A60A0232A699B00E2502B681B
:10199000B834236038BD000080220430C36F1206C3
:1019A0001343C022C367104B9202D96F114209D072
:1019B000DA6F920004D5DA6FD20003D5C046FAE799
:1019C000C046F5E7C022094B9202D96F114209D0F7
:1019D000DA6F920001D4C046FAE7DA6FD20001D57F
:1019E000C046FAE77047C0460404034804080348A9
:1019F000F0B5002A08D1E026CC064905E40E490FCF
:101A00001F25F600082709E0F825E02610221827F0
:101A1000CC024901E40E490F6D03F604B94094402D
:101A20009B00C018A0300368B3431943A943214366
:101A30000160F0BD0022F8B5041C0D1C131C4968A0
:101A4000FFF7D6FF201C696801220023FFF7D0FFB3
:101A5000201CA96800220123FFF7CAFF0122201CD5
:101A6000A968131CFFF7C4FF2A69231DDA67EA6817
:101A7000B4331A606E88EB782D78B6056D07B60919
:101A80006D0F3543F82680277600A551A559D80655
:101A90003F061907C00F3D439A06890F00072843E8
:101AA000D20F5B0689060143DB0F52070A439B07EF
:101AB0001343A351F8BD03220430C36F934319436A
:101AC000C1677047002905D101220430C36F134359
:101AD000C36705E0012903D10830C36F1943C1670B
:101AE0007047000070B5041C03250834E26F134BE7
:101AF0000E781340E367E36FAB431A1C33079B0F69
:101B00001343321C2A4001D005352B43E3674D684F
:101B10000B4BFC302B4343608B6801210B438360EC
:101B2000022A04D1802283685202134383608022F8
:101B3000E36F52041343E36770BDC046FFFFFFFE2F
:101B400000808080E02210B50F2452008358A34308
:101B50001943815010BD000070B50124051C8C4054
:101B600088352B68A343147B8C4023432B60537B25
:101B70007F2B17D8031CB033012905D11D68114CE8
:101B800008262C401C6007E00026B14204D11F2526
:101B90000E1C1C68AC431C600D2414571D68B44017
:101BA0002C431C60041CC8342368556880312B43C7
:101BB00023609568A36889002B43A36013680B50CA
:101BC00070BDC046FFE0FFFF0C4A08B51168031C5A
:101BD000002901D10A4911600321106803338B43A6
:101BE0000849C3188B4201D2136005E001F046FB9F
:101BF0000C2303600120404208BDC046A01800200D
:101C0000201A0020FC3F0020704710B543680C1CD0
:101C10002C33197801238B405A1E9C4200D2621E3D
:101C20000068FFF76BFE10BD08B543685B68984716
:101C300008BD000038B58468051CE268A3689A42B4
:101C40001FD243682B331B78002B11D02868031C4C
:101C5000FC339B69DB0436D4E368A268934232D23A
:101C60002268D15CFFF72EFDE3680133E360EDE706
:101C700023680068995CFFF725FDE3680133E360A2
:101C800021E00268131CFC33996909051BD54168E2
:101C9000081C2B300078002804D0DD680A48284052
:101CA000D86003E0106C094B034013647F20936BF2
:101CB0008343DBB2802BF9D00023237623608B682B
:101CC000002B00D0984738BDFFFFFFBFFFDFFFFFAD
:101CD00070B54368051C2C331B788468002B2BD00F
:101CE0002868031CFC339B691B071CD463692269A9
:101CF000934207D26268D618FFF7FBFC3070636925
:101D000001336361636922699342E9D100236376F9
:101D10002B68184AFC3319690A401A616B68DB6842
:101D2000002B00D0984761692369994221D2591A42
:101D3000281CFFF76AFF1CE063692269934208D2FE
:101D400062680068D618FFF7D4FC3070636901330D
:101D500063616369226993420BD100232A68637629
:101D6000116C054B0B4013646B68DB68002B00D0D3
:101D7000984770BDFFFFFF9FFF3FFFFFF8B50725A6
:101D800002272C4E2C4C301C06212C4AFFF7B2F9AE
:101D9000201C2B490122FFF753FCE369201CAB43B5
:101DA0003B43E361A36A1021AB43A362236B04228C
:101DB000AB4323630123FFF775FD0021201C0B1C9F
:101DC0000422FFF783FD0F22236C301C93433B4317
:101DD0002364291C1B4AFFF78DF9201C10210122C6
:101DE000FFF796FD201C10210122FFF79AFD201C11
:101DF00010210022FFF79FFD201C13210022FFF776
:101E00009AFDC221104B89005858104A0240C02048
:101E1000000402435A508022D2001A600C4A5858DB
:101E20000240C020000202435A50802292001A60F1
:101E30000020F8BD0000044000020048948C00100F
:101E4000B08C0010A88C001000E100E0FFFF00FF44
:101E5000FF00FFFF08B50248FFF7ECFE08BDC046D3
:101E60004805002008B50248FFF732FF08BDC0460C
:101E700048050020036810B51A1C44321478012C60
:101E800005D182681268A43211682143116045337C
:101E90001B78012B07D180218368C9001B68A433FC
:101EA0001A680A431A6010BD0368DB7C012B05D158
:101EB000836D1A68197980235B0205E0022B05D136
:101EC000836D1A68197901238B405360704703684A
:101ED000DB7C012B05D1826D1168127993404B6038
:101EE00008E0022B06D1836D19791A6880235B0202
:101EF0008B405360704770B5041C261C4369E16930
:101F00001868FFF789FA63699C3618683188FFF70B
:101F100002FB636901211868626EFFF7D1FA0122A2
:101F20006369616818798240CA602268157C022D55
:101F30000DD1D17A3268186892B25208FFF7EDFAE3
:101F400063691B68A4331A6815431D602EE0012DD8
:101F50002CD13288186892080021FFF7DEFA326827
:101F6000636992B252081868291CFFF7D6FA231C3D
:101F700092331A7863691B68A433002A0ED10421B6
:101F80001A680A431A601A6849180A431A601A68DC
:101F900008310A431A601A68103105E004211A68F2
:101FA0000A431A601A680C310A431A60636922688E
:101FB0001B68526BA83319680A431A6070BD031C72
:101FC000F7B5002290331B7806680092934200D048
:101FD000AAE0041C806E00F060FE251C271C019006
:101FE0000090203538372B68AA69197918680435AC
:101FF000FFF780F8BD42F6D1331C47331B78012B25
:102000000CD1236D626D19791868FFF773F8236D91
:1020100022681979927C1868FFF798FAF37C002BF4
:1020200005D0A36DE26D19791868FFF763F8201CDD
:10203000251CFFF739FF002708352B68A1691868B0
:10204000FFF7EAF92B68E16E1868FFF76CFA2B6866
:1020500001211868626EFFF733FA331C47331B788F
:10206000012B10D12B6803211868226EFFF728FA84
:10207000321C483212782B68501E8241717CD2B2D9
:102080001868FFF7FFF9221C9C322B68116818684A
:1020900089B2FFF740FA00212B680A1C1868FFF785
:1020A0003CFA2B68012118680022FFF736FA2368F2
:1020B0002A68DB19197B1068FFF73CFA01CDB900DB
:1020C00003687118A8331A68013794468A6A614612
:1020D0000A431A600123017962688B40D360032FA1
:1020E000ABD1201CFFF7C6FE337C002B02D0201C96
:1020F000FFF701FF80204000FFF742F86368726A33
:102100001A61221CE36E94321979116059791B7897
:1021100051609B09033A1370019B012B04D00123EA
:1021200090342370002300930098FEBD031CF7B584
:102130000222903300931B7805689343012B00D053
:1021400092E0021C0023041CAE3213805380938063
:10215000D380138153819381D3810A3A136093838F
:10216000FFF7B5FE231C261C1433083601932F1CE1
:1021700047373B78012B08D180223368D2001B6897
:10218000B0331A60802212011A60012108CE0A1CA5
:102190001868FFF763F9019B9E42E8D13B78012B59
:1021A0001AD1A36819682B7D4A69580003435B0460
:1021B00013434B61E36819686B7D4A695800034318
:1021C0005B0413434B6123691968AB7D4A6958006E
:1021D00003435B0413434B612B7C002B1DD0012177
:1021E00063690A1C1868FFF739F9A3682A7C1E681E
:1021F000E0682169231C012A03D1C2331B885B08D4
:1022000002E094331B68DBB2AA1CD28F9B180268D1
:102210009BB2336713670A681367144E2A6A336BDD
:10222000002113433363A36801221868FFF716F9EE
:10223000E368002118680122FFF710F923690021E3
:1022400018680122FFF70AF92B7C002B05D063697F
:10225000002118680122FFF701F92A6A336B9343C2
:1022600033630223009A1370F7BDC046000001409B
:10227000F7B50568041CFFF717FE2B1C47331B78C6
:10228000A768012B23D12B7D3868590042690B4385
:102290005B049A43E368426119686B7D4A695E009A
:1022A00033435B049A4323694A611A68AB7D5669DC
:1022B000B03001965E003343019E5B049E43802351
:1022C00056611B01B031B03203600B601360012313
:1022D0003A681361E2681268136122691268136137
:1022E0002A7C002A02D0626912681361044A296AB2
:1022F000136B90348B43136303232370F7BDC046E5
:1023000000000140017842784BB2F0B59201002BF9
:1023100013DB1A4C9B089B001B1903242140A1408E
:10232000FC34271CC0258F40AD005E591440BE43CD
:102330008C40321C22435A5113E00F230B40083BC0
:102340000F4C9B0803259B001B19FF242940A94023
:10235000251C8D40DE691440AE438C40321C224364
:10236000DA61027853B2002B06DB1F2313400122EF
:102370009A40131C014A1360F0BDC04600E100E022
:1023800000ED00E00023F0B587B005930593059AB2
:10239000484B9A4202D8059B0133F7E7031CB6333A
:1023A0001A7800239A4200D081E0041C8068FFF76D
:1023B000A9FF231CA4331868FFF7A4FF6068FFF788
:1023C000FEFD2368039046331B78012B07D90221B9
:1023D0006368DB681B68A4331A680A431A6065697E
:1023E00000222B1C94331B780192934203D1A86BDB
:1023F00000F0F2FC01902B1C95331B78002B05D1CB
:10240000E86B00F0E9FC019B034301932B1C2E1C9D
:102410002F1C5433383696370293716A00290DD039
:1024200003203368DB7E03401A1C0B78834313437D
:102430000B703978306C726AFFF78EFBB268002A35
:1024400005D0FB791268A033316C9B005A50029B77
:10245000043601379E42E0D12B1C2F1C08339437E1
:1024600002933E78002E0BD1A959002902D0A86B07
:1024700000F020FD0836382EF6D1A86B00F052FD92
:10248000029B043501379D42EBD10123019A9A4208
:1024900006D0039A9A4203D0B6342370002306E094
:1024A000226C3034134323610F2323700E3BD8B2C8
:1024B00007B0F0BDFEFF07004368F0B51A68041CC2
:1024C0001168526859679A67021C01210225061C8F
:1024D000B734B8322170B2361570367876B201361C
:1024E00006D11E68776836685F679E672570117031
:1024F000021C0023A0328365C36543654364043A2C
:10250000536043668367C364137612680168C263CD
:10251000021C88324C6A1268061D9440F4678C6A6B
:10252000051C013A94400A6A0835EC67C267826A62
:10253000D36213635363026A9360426A9360826951
:102540009360C2699360F0BD08B5031C30331A78FC
:10255000002A03D101321A7006F06AFB08BD10B5DB
:10256000041C4068FFF784FE00236365231C226C73
:102570003033002A05D00F22201C1A7006F058FBB9
:1025800000E01A7010BD7FB502680023111C4731AE
:102590000978019389072DD5443212789A4200D1E7
:1025A000033300220292029A0F2A20D8191C426992
:1025B0001E318900895880260D1CFC35AC68B60098
:1025C0003443AC6000240394039CFE2C02D8039C8B
:1025D0000134F8E7D21898325279C032920052583A
:1025E000019992B252180192029A0132DAE7019BE4
:1025F0001B0901E0938F9B08AC3003807FBD000076
:1026000037B56B46DC1D0023456823702378032B08
:102610000CD8012123780A1C02339B005B591868EF
:10262000FEF71CFF23780133DBB2EEE70C4A2B6880
:10263000116B1B6A0B431363002323702378032B56
:102640000CD82378002102339B005B5901221868C3
:10265000FEF704FF23780133DBB2EEE737BDC04657
:10266000000001404168034A0968136B096A8B4303
:10267000136370470000014073B56B46061CDC1DF8
:102680000023456823702378022B16D82378002175
:1026900002339B005B590B4A1868FEF73EFF01218D
:1026A0002378726802339B009B581A68936C8B43A3
:1026B000936423785B18DBB2E4E70CCD526A1A61AD
:1026C00073BDC046FFFF000010B5041C416C806C58
:1026D000636881420AD29B6827491868FEF7B7FEF3
:1026E000F02163684903DB6818680CE042009142FE
:1026F00014D2F0219B6849031868FEF7A8FE6368AE
:102700001D49DB681868FEF7A2FEF02163684903E3
:102710001B691868FEF79BFE002028E00322424355
:102720009B68186891420FD2F0214903FEF78FFE93
:10273000F02163684903DB681868FEF788FE636868
:102740000D491B691868E5E7F0214903FEF77FFE94
:10275000F02163684903DB681868FEF778FEF02112
:10276000636849031B691868FEF771FE0120636CFA
:102770000133636410BDC04614001E00F0B5846AC6
:10278000C16A226B666BE36A95195B005B1B244D83
:10279000921B6B430B60234B856B5A43C36B4A60A0
:1027A000AB4216D0826FC16F01328267AB4209DA49
:1027B0008A4215D90268126A914201D90139C1676A
:1027C000013302E08A420BD9013BC36300238367D4
:1027D00006E0021C036888321B6A12689340C367D4
:1027E000C56B23892C1CDC40C268061C1168983616
:1027F0004C435168021C3768943217601022D31A78
:102800002A1C9A40BB183360074A1B128365631861
:102810004565934200D9131C5B08C365F0BDC046F3
:1028200055150000F0240000FF7F0000021C9832C4
:10283000836A126810B59A62021C90321268416A6B
:102840005A62426D5A659A631024085F6E33824063
:102850008A6000221A8010BDF7B5816AC46A0A6BCB
:102860004E6BCB6A95195B005B1B4C4D921B6B4307
:1028700023604B4B5A43436E6260826E0133436662
:10288000934200D289E0041C0B89E26B9C46131C26
:102890006546EB40C068674605686B4345685B1951
:1028A000251C0193231C98352E6894331E60102339
:1028B000DB1B171C9F40F319261C2B601B12A36502
:1028C000B4363378002B1FD181688A4210DAA36FA7
:1028D000591CE36FA16799424BD92168096A8B4261
:1028E00001D9013BE36700230132E263A36740E0C3
:1028F000211CA0310A68C06801320A60824238D9BE
:10290000012232700B6034E0271C042330373B7007
:1029100000236046CB610B628B8A5343C3400B613B
:1029200023684833197801230B400DD105213970F4
:10293000616A01984A60E1690A8A9040226A886067
:102940009360201CFFF772FF21680B1C48331B7833
:102950009B0701D50C233B70221C0023A03213607F
:10296000A3676366183A33704B6A1268201D934060
:10297000C367221C211C019B903210685B08E36531
:102980008C31DB0308601360A36A2A68201C9A62FA
:10299000E16B00F037FBE36B6365F7BD5515000095
:1029A000F0240000031C052210B5041C30331A70FB
:1029B00000F0F6FB201C00F003FCE36B626A201CB5
:1029C0005360A26A9363FFF731FF221C0023B432E5
:1029D0001370143A1360A36710BD011C38B5B431ED
:1029E0000C78002C17D1C368C26B9D68836F0133CC
:1029F0008367AA4207DA011DC96F8B420DD90132E4
:102A0000C263846709E0426F934206D90123A03074
:102A10000B70046001E0FFF7C5FF38BDF8B5041C7A
:102A2000836AC16A5D6B1A6BDB6A50195B001B1A03
:102A30001B48521B43430B601A4B251C5A4305236A
:102A400030354A602B70231C0022B4331A70616D3C
:102A5000636A62665960E36DE6691F1C308A8740CD
:102A6000206AB76082602068021C47321278D2095F
:102A700003D0426A261D9200F267201C221C90306F
:102A800006689B038C3216600360201C00F0BAFAC3
:102A90002B78052B02D1201CFFF7C8FEF8BDC046DD
:102AA00055150000F0240000F7B5061C00258436FB
:102AB00001963378AB4200D0D7E0041C006E00F0E2
:102AC000D9F8071CA06E00F0F9F8051E012D03D0FF
:102AD0007D1E6B426B41DDB2A36AE26D1979186805
:102AE000FEF708FBE36AE26D19791868FEF702FB4E
:102AF000236C5B7B002B05D1236BE26D1979186881
:102B0000FEF7F8FA236DA16B1868FEF7F8FB626B0D
:102B1000236D117918680907090FFEF747FCE36C6C
:102B2000616B1868FEF7D4FBE06BA16CFEF766FDE5
:102B3000E06B616CFEF76CFD012800D1051CE16CB7
:102B4000236C0868DA8A666EC2631B8B226D43634E
:102B500017689B199BB2FB63454E01339BB27E63A2
:102B60003B674B68896801271961536892680121A6
:102B70001A61626DFEF7EFFB0121E36C0A1C186815
:102B8000FEF7CEFB236DA26D18680121FEF7E3FB73
:102B9000236D01211868FEF7D7FB381CE36C1A7B04
:102BA00059689040C860381C226D5168127B904073
:102BB000226CC860127818680021FEF701FCE36CF3
:102BC000226C186852780221FEF7FAFBE36C226C43
:102BD000186892780821FEF7F3FBE36C226C186802
:102BE000D2780921FEF7ECFBE36C226C18681279AD
:102BF0000A21FEF7E5FB236D226C1868527900214B
:102C0000FEF7DEFB236D226C186892790221FEF735
:102C1000D7FB236D226C1868D2790821FEF7D0FB10
:102C2000236D226C1868127A0921FEF7C9FB236D07
:102C3000226C1868527A0A21FEF7C2FB236CE06B03
:102C40009A7A0021FEF7F1FC236CE06BDA7A391CEA
:102C5000FEF7EBFC236CE06B1A7B0221FEF7E5FC30
:102C6000BD4202D00025019B1F70281CFEBDC0463E
:102C7000FFFF000010B50379002B0CD1041C006885
:102C8000FEF7B2FC0321226813688B4301390B4322
:102C9000136001232371002010BD10B5437B002B6E
:102CA0000AD1041C017B8068FEF7A0FB8022A36888
:102CB0005200DA6001236373002010BD10B5437B1E
:102CC000002B0AD1041C017B8068FEF7E9FA802200
:102CD000A3685200DA6001236373002010BD000076
:102CE00070B5037E041C022B3ED1C068A168FEF7BC
:102CF00037FE251C00262B6803CBFEF79BFE2B68B6
:102D000003211868FEF7D7FE2B681B7A002B08D129
:102D1000301C012210308240E3680433D96F0A432B
:102D2000DA67F1B22069FEF7CDFE002208CD5A72B3
:102D3000012E01D00126DEE7802023690B4A196CA1
:102D400000021140014319641A6C094902431A64D4
:102D50001A6C0A4002431A64637E002B02D0E068BA
:102D6000FEF71AFE00232376207E70BDF07FFFFF62
:102D7000FFF3FFFF70470378002B01D1013303708D
:102D80000020704730B585B001A8021C034B32CB40
:102D900032C2FEF763FA05B030BDC0467896001027
:102DA00070B5041C0A4EC500A859FF217519602290
:102DB00000F099FA6868FF21602200F094FA054853
:102DC000640100190021202200F08DFA70BDC04678
:102DD0004C190020D8180020F7B5437E041C022BA4
:102DE00061D18068FFF77CFF0325E37E0022216824
:102DF000061CE068FEF7FCFDE0686168FEF772FE05
:102E0000E368207CFC339968A94399609A6802437F
:102E10009A60A07E00F0BEF863691A7B002A41D058
:102E200069461A68CA71C97994465A684BB29201C8
:102E3000002B15DB1D499B089B005B18C0218900F6
:102E40005F5861462940CD00FF21081CA840114071
:102E50008743A9403A1C0A43C02189005A5012E016
:102E60000F230B40083B12489B089B001B18FF20B8
:102E70000D40011CED00A940DF6910408F43A840C0
:102E80003A1C0243DA61217EE068FEF75BFE63696B
:102E90001A68130606D41F23134001229A40131CFC
:102EA000024A13606676607EFEBDC04600E100E027
:102EB00000ED00E0F8B50C260D1C041C837E48795B
:102EC000164F7043DB00DB59321C181800F002FA71
:102ED0002879A37E7043DB00FB185B68291C181857
:102EE000321C00F0F7F9A07E0D492D684701CF197B
:102EF000002D11D0637FDAB256B2002E06DBB60089
:102F0000F659AE4208D0013AD2B2F5E7C0005A1CD9
:102F1000C3189B006277CD50F8BDC0464C19002005
:102F2000D8180020F7B58024827E1949D2008A186B
:102F30005568C268E400FC32916821439160D16811
:102F40008906FCD56A1D65351178FF291BD01479D7
:102F5000977801941F242140A3430B430121641857
:102F60000F407F01A3433B434027019CBB430C40E0
:102F7000A401234380245678A3433140C9010B4365
:102F8000C168FC314B610C32AA42DDD1F7BDC046AD
:102F90004C19002008B5044A044B1A60044A5A60D0
:102FA000FFF7FEFE08BDC0465C1900204C1900204A
:102FB000BC19002008B50948FFF7DDFE00280CD138
:102FC0000748FEF731FE002807D10648FFF7DAF977
:102FD000002802D10448FFF767FD08BDD41800207F
:102FE00048050020A00600207C09002008B5FFF756
:102FF000E1FF002800D0FEE70148FFF7A5FAFEE751
:10300000A0060020836AF0B51C6B5D6BC66A601970
:10301000651B6224DA6A5200121A2A4850432A4A6F
:1030200030605543294A756054649E6A7442146541
:10303000D564141C01259064206C244A2840FBD1DF
:103040006A27546D224D2C60D46D57641465D0648A
:10305000586A341990641F48693F04602868840BDB
:103060003820FF304443240A2C601D895E89E940E2
:103070004C4337381D88FF38B0406C4399881D6A2F
:10308000CC40013845436419F4401C62156C0F496B
:103090002F42FBD18D6D4A6D38219213FF31AD1354
:1030A0004D4351430C4A09121160DA692D12504305
:1030B00029180A1C3241094FDA61094BA2183D60F8
:1030C0001A60F0BD55150000F32400000000034015
:1030D00024190020201900201C1900201819002094
:1030E0002819002038B50023B425826A4355041CF2
:1030F000916B108910331B1A081C9840031C906AAE
:10310000844663449362201CFFF77CFFA36ADA695C
:10311000002A12DB8021C9018C46986B998A5A6A71
:1031200041431889624401415A621961605D9B6A9A
:10313000D20B1B12E265A36538BD18480122016855
:10314000002923DB1869814212D8996BDA8A4A4335
:1031500019890A411A611A7E002A05D1B422012177
:10316000A1545A6A0120E2E7B4215A6A605CDEE7A2
:10317000596A986B8C46998A920341431889624434
:1031800001411961B4215A62605CD0E7A022494232
:103190000160586AD20282429241D3E72819002086
:1031A000C021064B09061B68826A59181023108932
:1031B0001B1A906B98400B1813657047201900205C
:1031C00030B5856A84691C300EC810480068A0605C
:1031D0000F48006888600F4800689060A86B98608E
:1031E0001025605FA5688540A5601024085F8C6885
:1031F00084408C601020115E90688840906010219F
:103200005A5E99689140996030BDC04624190020EB
:103210001C1900201819002002B471464908490001
:10322000095C49008E4402BC7047C04603B4714635
:10323000490840004900095A49008E4403BC7047C0
:103240001C2101231B04984201D3000C10391B0AD6
:10325000984201D3000A08391B09984201D300099A
:10326000043902A2105C40187047C04604030202F1
:10327000010101010000000000000000014B18687E
:103280007047C0460C0B00200E4B70B500251E1C6D
:103290000D4CE41AA410A54204D0AB00F358984793
:1032A0000135F8E7FEF7B0FC084B00251E1C084C62
:1032B000E41AA410A54204D0AB00F3589847013596
:1032C000F8E770BD4C0B00204C0B00204C0B00208D
:1032D0004C0B0020002310B5934203D0CC5CC454A7
:1032E0000133F9E710BD031C8218934202D0197014
:1032F0000133FAE77047F0B58BB0141C1D1E12990C
:1033000006DA802424062B191D1C141C2D2300E032
:1033100000230B702023149E03229E43462E07D0C9
:10332000331C453B59424B411099013ACB1810933D
:10333000109B00920193139B221C029308AB0393F2
:1033400009AB04932B1C01F0C5FD071C472E02D1CD
:10335000119BDB072CD5109BFB180793462E14D12D
:103360003B78302B0CD1201C291C0022002303F0B9
:1033700063FD002804D10123109A9B1A139A13604D
:10338000139B079A1B68D3180793201C291C002243
:10339000002303F051FD002801D0079B0993099BEE
:1033A000079A934204D25A1C099230221A70F6E707
:1033B000381C099B159ADB1B13600BB0F0BDF7B5E9
:1033C0002B23071C0C1C0270861C002901DA2D23FC
:1033D0004C427B70092C1CDD6B46DD1D201C0A2134
:1033E000FEF7F2F8013D30312970201C0A21FEF76A
:1033F000CBF8041E092CF1DC013D30342C706B46F7
:103400000733301CAB4209D92B78013533700136B4
:10341000F5E73023E4183370B01C7470C01BFEBD98
:10342000F0B593B00C1C0892189E0993051C02F08D
:1034300069FE0368181C0B9300F0E8FD00230722C7
:10344000109333680C90073393431A1C186859681B
:103450000832277E3260A064E16400F089FD012813
:1034600018D1A06CE16C0022002303F0EBFC0028D3
:1034700003D0231C2D2243331A70B74B0A93472FD6
:1034800001D9B64B0A9303232268236101339A437F
:10349000226012E0A06CE16C00F06AFD2668002852
:1034A0000DD1AF4B0A93472F01D9AE4B0A9303239B
:1034B000311C2361013399432160002680E0802183
:1034C0006068C900431C01D1062309E0A26CE36CCB
:1034D000672F01D0472F04D1002800D0C1E101237C
:1034E00063606368314300932323216001910021CD
:1034F00006AA9B1802930FAB039310AB0593049796
:10350000A26CE36C0691281CFFF7F5FE20233A1C01
:103510000A909A43472A07D10F9BDA1C02DB6268A4
:1035200093422DDD023FFFB20F99652F12D8201C68
:1035300001393A1C50300F91FFF741FF109A061CD9
:1035400083182361012A02DC2268D2072ED50133B9
:1035500023612BE0662F14D16368002908DD216107
:10356000002B02D12268D2071DD50133CB1811E000
:10357000002B03D101222168114213D09A1C11E0C3
:1035800067270F9B1098834206DB22682361D207CE
:1035900009D50133236106E00122002B01DC022161
:1035A000CA1A8218226100260F9BA365232306AA4C
:1035B0009B181B78002B03D0231C2D2243331A7039
:1035C000099B281C0093211C089B11AA00F060F99C
:1035D000431C02D10120404257E12268530504D424
:1035E000281C08990A9A236917E1652F00D8D5E0AD
:1035F000A06CE16C0022002303F01EFC00282BD0FD
:103600000123281C0899584A099EB047431CE1D061
:103610000F9B109A934207DB2368DB0704D42368CF
:103620009B0700D51BE114E1099E281C08990B9A01
:103630000C9BB0470026431CCCD0109B013B9E4204
:10364000EDDA221C0123281C08991A32099FB84779
:10365000431CBFD00136F0E70F9B002B2BDC01236E
:10366000281C0899404A099EB047431CB2D00F9BC2
:10367000002B05D1109B002B02D12368DB07CED590
:10368000099E281C08990B9A0C9BB0470026431CE6
:10369000A0D00F9B281C5B4208999E4208DA221C8E
:1036A00001231A32099FB847431C93D00136F0E733
:1036B0000A9A109BB1E0109BA66D9E4200DD1E1C75
:1036C000002E01DC002314E0331C281C08990A9A00
:1036D000099FB847431CF5D17CE7221C0123281C15
:1036E00008991A32099FB847431C00D172E70D9B15
:1036F00001330D93F343A26DDB170D993340D31AB9
:103700009942EADB0A9B9E180F9B109A93420EDBAC
:103710002368DB070BD4109B0A9AD7180F9ABF1B9C
:103720009B1A9F4200DD1F1C002F09DC11E00C9B3F
:10373000281C08990B9A099FB847431CEBD149E70D
:10374000321C3B1C281C0899099EB047431C00D121
:1037500040E7002316E0C046A2960010A69600108F
:10376000AA960010AE960010B2960010221C0123FB
:10377000281C08991A32099EB047431C00D129E73A
:103780000A9B01330A930F9A109B9A1AFB43DB178B
:103790003B40D31A0A9A9A42E8DB40E7109B281C68
:1037A0000899012B02DC01231A423CD001230A9A1A
:1037B000099FB847431C00D10CE70C9B281C0899B3
:1037C0000B9A099FB847431C00D103E7A06CE16C3A
:1037D0000023002203F030FB0023002812D10A9AB4
:1037E000109B0132013B281C08991DE0221C01237B
:1037F000281C08991A32099FB847431C00D1E9E6F2
:103800000A9B01330A93109B0A9A013B9A42EDDB13
:10381000221C281C331C08995032099EB047431CB7
:1038200000D0FCE6D6E60A9A099FB847431CEFD1C0
:10383000D0E6221C0123281C08991932099FB84799
:10384000431C00D1C6E60136E368119A9B1A9E42DA
:10385000EFDB119BE068984217DA181C15E0002690
:10386000F2E73143216001912321009006A8091855
:1038700002910FA9039110A90591002104970691C7
:10388000281CFFF738FD0A9046E613B0F0BDC0468D
:10389000F7B5171C01930A698B6800900C1C9342C2
:1038A00000DA131C221C3B6043321278002A01D03C
:1038B00001333B6023689B0602D53B6802333B60C3
:1038C000062523681D401ED0231C43331B785A1E37
:1038D0009341226892061CD53020E1184031C8700F
:1038E000211C5A1C45310978A21840320233D1708C
:1038F0000FE0221C0123009801991932089EB0475D
:10390000431C0ED00135E3683A689B1A9D42F0DBF8
:10391000DAE7221C009801994332089DA847431C0E
:1039200002D10120404220E006232068E1683A6885
:1039300003400025042B03D18D1AEB43DB171D40F8
:10394000A3682269934201DD9B1AED180027AF425C
:103950000ADA221C0123009801991A32089EB04706
:10396000431CDED00137F2E70020FEBDF0B58BB07E
:1039700006920A1C43320793059004920A7E0C1C9F
:10398000109B6E2A00D1A8E011D8632A22D009D852
:10399000002A00D1B2E0582A00D0C2E045310A70B6
:1039A0007C4A4FE0642A1DD0692A1BD0B9E0732AF3
:1039B00000D1A7E009D86F2A29D0702A00D0B0E042
:1039C000202209680A43226037E0752A1FD0782A2E
:1039D00033D0A6E00D1C1A684235111D196013681A
:1039E0002B70A1E021681A68080603D5111D196023
:1039F000166805E04906F9D5111D19600023D65E49
:103A0000002E3BDA2D23049A7642137036E02168AB
:103A10001A68080603D5111D1960166805E04906E5
:103A2000F9D5111D19601668B6B25A4B227E039360
:103A30000A276F2A1DD108271BE0221C7821453256
:103A40001170554A19680392081D226818600E68A3
:103A5000100602D4500600D5B6B2D30702D52023F3
:103A60001A4322601027002E03D1202322689A4394
:103A70002260231C002243331A7002E00A27454BC0
:103A800003936368A360002B03DB04222168914346
:103A90002160002E02D1049D002B0ED0049D301C0D
:103AA000391CFDF781FD039B013D5B5C301C2B70D5
:103AB000391CFDF759FD061EF1D1082F09D12368E5
:103AC000DB0706D563682269934202DC3023013D9F
:103AD0002B70049B5B1B23612BE009681A680806A6
:103AE00007D4490605D5111D19601368A28A1A80EA
:103AF00004E0111D1960136862691A600023049DB7
:103B0000236116E01A68111D196015680021281C30
:103B1000626802F005FB002801D0401B606063680A
:103B200003E0251C42352A70012323610023049AF7
:103B30001370079B05980093211C069B09AAFFF7A9
:103B4000A7FE431C02D10120404221E02A1C236928
:103B500005980699079DA847431CF4D023689B0746
:103B600005D4099BE068984212DA181C10E0002581
:103B7000E368099A9B1A9D42F3DA221C01230598F7
:103B800006991932079EB047431CDCD00135EFE798
:103B90000BB0F0BDB4960010C5960010F0B5151C22
:103BA00000228BB006938B6805925D320E1CFF32AB
:103BB000591E0290914205D95E3BFF3B05935E235F
:103BC000FF33B360F0233268DB0013433360331CF0
:103BD00000241C331F1C049303940994089400943C
:103BE0000794B268002A00D1E1E02B681B78492BCA
:103BF00077D018D8392B0DD8312B42D22D2B49D064
:103C000002D82B2B46D0D2E02E2B00D18DE0302BCA
:103C100025D0CCE0452B00D190E0462B79D0412B2C
:103C200000D0C4E058E0652B00D187E00AD8542BBF
:103C300073D002D84E2B35D0B9E0592B71D0612BFF
:103C40004AD0B4E06E2B2DD004D8662B61D0692BFE
:103C500047D0ACE0742B60D0792B62D0A7E03168FC
:103C6000C8050ED580239943009B31600133009332
:103C7000059B002B00D182E0013B01320593B2602D
:103C80007DE0039A1219002A00D090E0B34A31680F
:103C90000A4005E0802132680A4200D187E08A4369
:103CA00032606AE0039A002A0ED1009A002A0ED1EF
:103CB0003168E022081CD2001040904207D1A84A87
:103CC0000A403260012257E0039A022A53D0012CA5
:103CD0001CD0042C1AD06AE0039A012A67D1022270
:103CE0004AE0002C0ED1009A002A63D13168E0220C
:103CF000081CD2001040904260D1994A01340A4019
:103D000032603AE0FD21E21E0A4250D10134E4B2B1
:103D100033E0022C4BD103242FE0062C47D107249B
:103D20002BE0072C43D1082427E031688A053ED5D3
:103D30008C4A0A403260009A07921EE0A02280203E
:103D40003168D2000A40C000824204D001422ED025
:103D5000009A002A32D08A0504D4009A079809975D
:103D6000121A08927E4A0A40C02149000A43326072
:103D70000022009201E0032203923B700137B368F6
:103D8000013BB3603369013333616B68013B6B60A6
:103D9000002B03DD2B6801332B6022E7C0235B007F
:103DA000F3580298291C9847002800D119E7009B76
:103DB000002B03D032686C4B13403360039B013BF4
:103DC000012B10D8049B9F420BD9BE23013F5B00FF
:103DD000F358397802982A1C98473369013B3361BC
:103DE000F0E70124B7E0631E062B2AD8022C19D96C
:103DF00005940397059B013BDBB20593022B0DD085
:103E0000039B0298013B03931978BE235B00F35890
:103E10002A1C98473369013B3361EBE7033CE4B26A
:103E20003F1B0EE0049B9F42DBD9BE23013F5B009A
:103E3000F358397802982A1C98473369013B33615B
:103E4000F0E73368DA052BD55B050ED5049B9F425E
:103E5000C7D9BE23013F5B00F358397802982A1C6A
:103E600098473369013B3361F0E733697C1E217861
:103E7000013B336165290CD045290AD0BE235B0084
:103E8000F35802982A1C98473369BC1E013B2178DD
:103E90003361BE235B00F35802982A1C9847271C05
:103EA000102433681C4055D1C0233C703268DB00BD
:103EB00013408022D200934206D1079A009B9B1A9E
:103EC0005A42002B0DD118E0089B002B15D0099BFE
:103ED000221C591C02980A2300F0E4FE089B099F4B
:103EE000C21A331C7033FF339F4202D3371C6F3723
:103EF000FF37381C1D4900F067F80022029804992A
:103F000000F0B6F8069B3268009001911B6891079B
:103F100001D4520708D506991A1D0A601B6800993A
:103F2000019A19605A6011E006991A1D0A600098FA
:103F300001991D6800F01CF8002802D100F040F83B
:103F400003E00098019904F0E1FD2860F368013373
:103F5000F36000E00024201C0BB0F0BD7FFEFFFFEB
:103F60007FF8FFFF7FFDFFFFFFFEFFFFD6960010EB
:103F700030B50C1C0223044317D080242406A14230
:103F800001D1002811D00A4B49004908094ACC1830
:103F90000423944209D9084A013B914205D9074AB2
:103FA0000023914201D143424341181C30BDC04619
:103FB0000000F0FFFFFFDF7FFFFF0F000000F07F3A
:103FC000004870470000C07F0EB410B59DB002A934
:103FD000029008610B4882248860486101204042B9
:103FE0001FABC881084804CBA400006801938C81F2
:103FF00002F0B0FD0023029A13701DB010BC08BC83
:1040000003B01847FFFFFF7F0C0B00200023C25CAA
:104010000133002AFBD1581E704730B503680C7875
:104020000133002C0AD01A78151C413D192D00D8F7
:1040300020320131A242F2D0002001E003600120D1
:1040400030BD000070B5161C0D1C02F04BFB002E9D
:104050000BD06B226B005B0DD31A002B05DD034DDB
:104060001C050022631903F099FE70BD0000F03FAB
:104070000023F0B5A3B01E93002600270B1C03906D
:10408000069119921D931D9B1A780D2A05D8092AAD
:1040900014D2002A00D1C3E112E02B2A06D02D2A27
:1040A00002D0202A0CD109E0012200E000220D926A
:1040B0005A1C1D925B78002B04D1B1E10133E1E77A
:1040C00000230D9300221D9D0A922B78302B5DD189
:1040D0006B78582B01D0782B4CD11EAB00930D9BE5
:1040E000039801931DA9C24A1FAB01F03CFD0724B0
:1040F0000490044001D100F0A7FD062C05D1002357
:1041000001351D950D9300F09FFD1E9A002A07D0E2
:1041100020A8352102F0DAFB03981E9902F043F83B
:104120001F9B062C1CD8201CFFF776F8040A0714E6
:10413000170A040000273E1C12E0209E219F0FE07A
:10414000AC4A21999B18AC4A1B050A401343209E98
:104150001F1C05E0A94F002602E00126A84F764269
:10416000049B1B0701D400F06FFD80231B061F4337
:1041700000F06AFD1D9B5A1C1D925B78302BF9D014
:10418000002B01D100F060FD01230A931D9B0C93CD
:1041900000230593079304931D9C23781A1C303A3F
:1041A0000893D3B2092B12D804990A23082904DCF6
:1041B00007994B43D318079303E005994B43D31852
:1041C0000593049B0134013304931D94E4E70398A1
:1041D00001F098FF0568039801F094FF0068FFF76D
:1041E00015FF291C021C201C02F0BCFD051E05D079
:1041F0000020089B049C011C08905AE0039801F0E1
:1042000081FF0068FFF702FF1D9B049A18181D909C
:104210000378101E41D1302B05D11D9B01305A1C53
:104220001D925B78F7E71A1C313A082A3DD8011C29
:104230000020041C1D9A0C92303B421C002B26D0FF
:104240008918221C001982420FD00132541E082CFA
:1042500004DC0A24079D65430795F4E7102AF2DC85
:104260000A24059D65430595EDE7541C082A06DCE4
:104270000A2207984243D3180793002207E000223E
:10428000102C04DC0A20059D6843C31805931D9B70
:10429000581C1D905B78101C02E0281C291C049CF3
:1042A0001A1C303A092AC7D901E00024211C012236
:1042B000089220221D1C95430022452D57D1231C16
:1042C0000A9D03432B43934200D1A9E01D9B069313
:1042D00001331D93069B5B782B2B06D02D2B01D031
:1042E000099208E00123099300E00992069B02333A
:1042F0001D93069B9B781A1C303A092A34D8302B20
:1043000004D11D9B5A1C1D925B78F8E731256D4244
:10431000AC469C4465460022082D28D8303B0B93C0
:104320001D9B0E9330256D42AC461D9B5A1C1D9261
:104330005B789C446546092D06D80A220B9D6A438A
:10434000D318303B0B93EDE70E9D521B151E2D4AE3
:104350009446082D03DC0B9A624500DD6246099DF8
:10436000002D04D0524202E0069A1D920022002C39
:1043700061D10A9A104301D000F066FC089A002A25
:104380004ED14E2B1CD002DC492B05D048E0692BC6
:1043900002D06E2B14D043E01DA81B49FFF73DFE51
:1043A00000283DD01D9B1DA8013B18491D93FFF718
:1043B00034FE002802D11D9B01331D930F4F2CE0CA
:1043C0001DA81349FFF729FE002829D01D9B1B7843
:1043D000282B21D11DA80F4920AA01F0FAFD05289C
:1043E0001AD1219B054A209E1A43171C00F02CFC71
:1043F000DC96001033040000FFFFEFFF0000F07FA9
:10440000FFFFFF7F1F4E0000A7960010309800109E
:10441000AF96001018970010924F002600F014FC81
:10442000069B1D9300230D93199B002B01D000F0D8
:104430000EFC00F017FC531A0993049B002B00D1CB
:104440000494251E102D00DD1025079804F02CFB88
:10445000061C0F1C092D15DD2B1C834A093BDB00B4
:10446000D3181A685B6803F099FC061C05980F1CAA
:1044700004F01AFB021C0B1C301C391C02F028FD36
:10448000061C0F1C0F2C37DC099B002B00D1DBE333
:1044900024DD162B07DC7449DA008A18106851688D
:1044A0003B1C321C15E02523099A1B1B9A4223DC76
:1044B0000F226D4D141BE300EB1818685968321C6D
:1044C0003B1C03F06BFC099B1C1BE4002D192A68A4
:1044D0006B6803F063FC061C0F1CB5E3099B1633E5
:1044E0000ADB099B301CDA005F4B391C9A1A5368AF
:1044F000126803F015F8EEE7099B651B5D19002DA6
:1045000059DD0F232B400AD0574ADB00D318186817
:104510005968321C3B1C03F041FC061C0F1C0F2386
:104520009D4300D1B0E02633FF339D420EDD0023D2
:10453000049305930B93089322230026039A4B4F71
:1045400013600B9BB34200D06AE37DE30023301C71
:10455000391C2D110593012D0EDDEB0707D5059BA9
:10456000DA00434BD3181A685B6803F017FC059B0D
:104570006D1001330593EEE7061C3E4BCF18059BEB
:10458000DA003B4B9B1818685968321C3B1C03F03F
:1045900005FC364B0F1C0B403749061C8B42C6D816
:1045A00036498B4203D90126354F76426CE0D4233D
:1045B0009B04FF1868E0002D66D00F236D422B404E
:1045C0000AD0294ADB00D318301C1A685B68391CF2
:1045D00002F0A6FF061C0F1C2D1155D01F2D05DD66
:1045E0000023049305930B93089318E1002306938B
:1045F000EB0601D56A230693391C301C214E002D91
:1046000008DDEB0703D53268736803F0C7FB6D1054
:104610000836F4E7069B061C0F1C002B19D06B22F2
:104620004B005B0D081CD31A002B12DD1F2B0CDD79
:104630000026342B02DDDC27BF040AE00122203BE8
:1046400052429A401040071C03E0012252429A4015
:104650001640301C391C0022002302F0EDFB00281C
:10466000BED113E00000F8FF489800100000F07F72
:10467000109900100000B0FC0000A07C0000907CAD
:10468000FFFFEF7FF096001000230693079B03982F
:1046900000930C99049A231C01F0DAFD0B9000287A
:1046A00000D144E7099B099A5B42D2171340139348
:1046B0000023049305930B9B0398596801F03BFD7D
:1046C0000890002800D137E70B9B0B991B690C3130
:1046D0009A1C92000C300793FEF7FCFD1FAB009371
:1046E00020AB01930398321C3B1C0E960F9702F0EF
:1046F0006FF81E90002800D11EE70398012101F0F9
:1047000031FE0590002800D116E70023099A0A938C
:10471000934200DA0A921F9B002B00DA89E0139A79
:104720000A9CD518069A20999B1A36225B18521AB1
:10473000C84901208B4200DB85E0C91A521A1F29A3
:104740007BDC8840002318901293AB180793069BDC
:10475000A418E418079BAB4200DD2B1CA34200DD2C
:10476000231C002B04DD079AE41AD21A0792ED1AD3
:10477000139B002B6BD1079B002B00DD80E00A9B75
:10478000002B00D086E0002C00DD8DE0002D00DD48
:1047900094E003981E99089A01F039FF04900028CC
:1047A00000D1C9E60022C3680599C2600C9301F0EC
:1047B00013FF002800DB91E00C9B002B00D01AE2D5
:1047C000002E00D017E23B0300D014E2D622A24B09
:1047D000D2043B40934200D80DE2049B5B690793EF
:1047E000002B75D004990398012201F0A3FE0599CE
:1047F000049001F0F1FE002800DCFCE1069A964BE3
:10480000002A00D19AE01A1CD6213A40C9048A42F3
:1048100000DD93E0DC239B049A4200DDEEE12223DD
:10482000039A002613600B9B0027002B00D0F7E1B2
:104830000AE20A9A139DD41A74E78849CB1A011C1C
:104840009940129101E00023129318907DE71A1C01
:104850000398059901F01CFE0590031E00D16BE63C
:104860000398191C1E9A01F086FD0C90002800D1B7
:1048700062E603981E9901F096FC0C9B1E937AE762
:1048800003981E99079A01F055FE1E90002800D04B
:1048900075E751E6039808990A9A01F0F9FD089026
:1048A000002800D06FE747E603980899221C01F022
:1048B00041FE0890002800D068E73DE6039805997E
:1048C0002A1C01F037FE0590002800D061E733E68E
:1048D000049B1B690793012B84DC8CE1002864D1C5
:1048E0000C9A3B03002A24D05D4A391C1B0B9342CF
:1048F0002DD1069A0138341C031C002A0AD0D42575
:10490000554AED043A40AA4204D86C33120D9A1A63
:10491000031C93409C421AD1524B994202D1631C12
:1049200000D109E64C4B0026194080235B03CF18C9
:1049300061E1002B0BD1002E09D15FE701264A4A25
:104940003B409B18464A76421A43171C53E1129B80
:10495000002B03D03B4200D14DE103E0189B3342D2
:1049600000D148E10C9B301C391C069A002B0AD060
:10497000FFF768FB021C0B1C0E980F9902F0A8FAB7
:10498000061C0F1C37E1FFF75DFB021C0B1C0E9889
:104990000F9903F09DFC00220023061C0F1C02F05F
:1049A0004BFA002800D03AE725E10498059901F078
:1049B00063FF80230022DB05041C0D1C02F04CFA6F
:1049C000002836D00C9B002B02D00024274D0BE092
:1049D000002E02D13B0305D10BE0012E02D1002FA6
:1049E00000D11CE70024224D002307931F4B0A939C
:1049F00048E0201C291C00221C4B02F023FA00284E
:104A000008D1201C291C00221A4B03F0C7F907907B
:104A10000A9103E00C9B0793164B0A93802212061F
:104A20009446079B1A930A9B63441B931A9C1B9DF5
:104A300028E0104B201C291C002203F0AFF90C9B2E
:104A400007900A91002B17D180231B06CB181490D6
:104A5000159315E003FCFFFF0000F07FE3FBFFFF71
:104A6000FFFF0F00FFFFEF7F0000F0FF0000F03FAF
:104A70000000F0BF0000E03F079A0A9B14921593D4
:104A8000149C159D7A4B3B401293129A794B9A4293
:104A90002BD10E9A0F9B10921193774B301CFF185D
:104AA000391C01F01FFE021C0B1C201C291C03F0EA
:104AB00075F9021C0B1C301C391C02F009FA6C4BF6
:104AC0006E4A061C0B4093420BD96D4B119A9A42C9
:104AD00003D1109B013300D12EE50126684F7642A9
:104AE00078E0D4239B04CF1840E0069B002B2BD00A
:104AF000D423129ADB049A4226D807980A99614A6D
:104B0000614B02F0A9F9002819D007980A9902F020
:104B1000C1F9002800D1013003F0C6FF0C9B0790BB
:104B20000A91002B05D180231B06CB1816901793F2
:104B300003E0079A0A9B16921793169C179DD6239B
:104B4000129ADB04EB189D1A0E980F9901F0CAFD1A
:104B5000021C0B1C201C291C03F020F9021C0B1C3E
:104B60000E980F9902F0B4F9061C0F1C069B0E97C5
:104B7000002B2FD13E4B129A3B409A422AD10A99E0
:104B8000079803F01FFF03F053FF0B1C021C0A9948
:104B9000079803F09DFB0C9B041C0D1C002B04D1FB
:104BA000002E02D10E9B1B030ED0201C291C374A5D
:104BB000374B02F047F9002832D1201C291C354A16
:104BC000354B02F053F903E0304A344B02F03AF926
:104BD000002825D103981E9901F0E5FA0398089959
:104BE00001F0E1FA0398059901F0DDFA03980499C0
:104BF00001F0D9FA5FE5069B002B11D0284B301C41
:104C0000119300231093391C109A119B03F0C6F8DE
:104C1000061C0F1E04D1002802D12223039A136020
:104C200003981E9901F0BFFA0398089901F0BBFAA6
:104C30000398059901F0B7FA03980B9901F0B3FABC
:104C40000398049901F0AFFA199B002B02D0199B2D
:104C50001D9A1A600D9B002B04D080231B06321C6A
:104C6000FB1801E0321C3B1C101C191C23B0F0BDCA
:104C70000000F07F0000E07F0000B0FCFFFF9F7CA1
:104C8000FFFFEF7F0000C0FFFFFFDF419535A094DD
:104C9000FFFFDF3F35E5AF350000E03FFFFFCF3FCF
:104CA00000005039F0B51E1C444B87B01B680590BE
:104CB00002930B1C039101921C78029A5D1C12193D
:104CC00050780822104001D02B1CF5E72D2C04D180
:104CD0009D1C5C780123009304E000902B2C01D1F3
:104CE0005C789D1C002E02D0102E0AD160E0302C82
:104CF0005CD120222B789343582B52D110266C780C
:104D00000235009F311C7B1E9F412D4BFF18381C24
:104D1000FCF74AFC381C0491311CFCF725FC0022EE
:104D2000071C131C029909194978480701D5303C22
:104D300007E00320084017D03721012800D0203198
:104D4000641AB44210DA511C0BD0BB4207D802D10E
:104D5000049A944203DC73430122E31801E0012228
:104D600052422C780135DDE7181C511C0BD10098FC
:104D7000059A431E9841124BC01822231360019BD1
:104D8000002B0AD117E00099002900D05842019B5E
:104D9000002B10D0039B002A00D06B1E019A1360D9
:104DA00009E03024002EACD10826AAE70A26A8E79D
:104DB000302CA6D19DE707B0F0BDC046100B0020F7
:104DC000FFFFFF7FF0B503690C6989B00026A3429D
:104DD0007CDB0B1C013C1433A50003935B1904938B
:104DE000031C143301935D19049B07911B68029007
:104DF000591C28680593FCF7B7FB071EB74235D04E
:104E0000039B01989C460596634604CB91B2794377
:104E1000120C7A4371180E0C9C46B3180693028844
:104E20001E0C059B89B2D2180368521A190C6B46E6
:104E30001B8BCB1A11145B18191492B21B041A4362
:104E4000049B059104C06345DED22B68002B0DD175
:104E5000231C019A043D954203D8029A1C1C13613D
:104E600004E02A68002AF8D1013BF2E7029807998A
:104E700001F0B2FB002828DB00200199039A0137DA
:104E800020CA0B881818ABB2C31A08682D0C000C86
:104E9000451B1E14AD1928149BB22D042B4308C1C9
:104EA000049B9342ECD2019AA300D3181A68002AFB
:104EB0000BD1019A043B934202D8029B1C6104E08F
:104EC0001A68002AF9D1013CF3E73E1C301C09B0F6
:104ED000F0BD0000F0B5161C1F1C446A9BB0089082
:104EE000239D06960797002C08D1102001F00EF99B
:104EF000089B5862446084600460C460089B5B6ADD
:104F0000196800290BD05A68012393404A608B60CE
:104F1000089801F048F90022089B5B6A1A60079B19
:104F2000002B05DA01232B607B005B08079301E06F
:104F300000232B60079CC64B221C17931A409A42F1
:104F400019D1C44B229A1360069AC34B002A02D18E
:104F5000240300D1C14B249A181C002A01D100F06F
:104F6000B6FDD978DA1C002900D005322499181C26
:104F70000A6000F0ACFD069E079F0022301C391C21
:104F8000002301F059FF051E0ED00123229A136061
:104F9000B34B249A181C002A01D100F098FDB14AA5
:104FA00024990A6000F093FD19AB009318AB0193AC
:104FB0000898321C3B1C01F00BFC61000A90490D63
:104FC00009D03803A84C000B0443A848321C231C0A
:104FD0000E1816951CE0189B199A9E18A44B9E4219
:104FE00009DBA44BF018069BC340181CA24B9B1B6B
:104FF0009C40204304E0A148069B801B8340181C72
:1050000003F052FD9E4C021C0B190121013E16912A
:10501000101C191C00229B4B03F05AF99A4A9B4B17
:1050200002F0BCFE9A4A9B4B01F052FF041C301C5C
:105030000D1C03F0FDFC984A984B02F0AFFE021CD9
:105040000B1C201C291C01F043FF041C0D1C03F049
:10505000B9FC291C03900022201C002301F0F2FE61
:1050600000280DD0039803F0E3FC021C0B1C201C4D
:10507000291C01F0E1FE43424341039AD31A0393F2
:1050800001231393039B162B11D8854ADB00D318F9
:1050900018685968069A079B01F0E8FE002805D0B9
:1050A000039B013B03930023139300E01390189B91
:1050B0009E1B00230D93013E0E9604D50E9B5B4272
:1050C0000D9300230E93039B002B08DB039A0E9B8A
:1050D000944663440E93002312920F9307E00D9BB6
:1050E000039A9B1A0D9353420F9300231293209B14
:1050F0000125092B27D8052B02DD0025043B209331
:10510000209B981E032823D8FEF786F8020E041071
:10511000002300E001231093219B002B21DC0123BD
:105120000B9309931A1C1AE0002300E00123039A51
:1051300010939446219B63440B9301330993002BF6
:1051400012DC012310E0002310952093013B02E0C4
:1051500001231093023B00220B93099313332192F6
:1051600002E0219B0B930993089A546A0022626023
:105170000432111C1431994204D861685200013183
:105180006160F6E70898616800F0D5FF089B206031
:105190005B6A1B680C93099B0E2B00D988E1002DDC
:1051A00000D185E1069B079C14931594039B002B6B
:1051B00030DD0F223A491340DB00CB185C681B68D6
:1051C00004930594039B02271D11EB060AD514983E
:1051D0001599344B15401A6A5B6A02F0A1F90690E2
:1051E000079101372F4C002D0DD0EB0708D50498FF
:1051F00005992268636802F0D1FD0490059101379A
:105200006D100834EFE706980799049A059B02F0A1
:1052100087F949E0039B02275D42002D46D0149890
:1052200015990F231E4A2B40DB00D3181A685B68C0
:1052300002F0B4FD1B4C2D11002D35D0EB0704D529
:1052400022686368013702F0A9FD6D100834F3E7A6
:105250000000F07F0F270000369800102D980010F6
:10526000B2960010B39600100000F03F01FCFFFF63
:10527000EFFBFFFF120400000EFCFFFFEEFBFFFF41
:10528000000010FE0000F83F61436F63A787D23F24
:10529000B3C8608B288AC63FFB799F501344D33F25
:1052A000489800101099001006900791139B002B4E
:1052B0001ED0069C079D0022201C291CCE4B01F00D
:1052C000C1FD002814D0099B002B11D00B9B002B93
:1052D00000DCE9E0039B291C013B1193201C002208
:1052E000C64B02F05BFD0137069007910B9D02E073
:1052F000039B099D1193381C069B079C04930594FE
:1053000003F096FB049A059B02F048FD0022BC4B7B
:1053100001F0DEFD06900791069E079F079BB94AA4
:105320009C18002D1CD1049805990022B64B02F060
:10533000CFFF321C231C0490059101F097FD00283B
:1053400000D063E204980599321CB04E079CB44625
:105350006444231C01F076FD002800D04CE2A3E059
:10536000AB4A6B1E1099DB00D31800294ED01A6887
:105370005B680020A74902F0D3F8321C231C02F01E
:10538000A7FF049E059F0C9B069007910493391C70
:10539000301C03F017FB041C03F04AFB021C0B1C1F
:1053A000301C391C02F094FF049B30340133049309
:1053B000013B1C70069A079B061C0F1C01F042FD66
:1053C000002800D061E3321C3B1C00208A4902F017
:1053D0007FFF069A079B01F035FD002800D0CDE045
:1053E000049B0C9A9B1AAB425EDA0698079900223E
:1053F000824B02F0D3FC0022069007917F4B301CB9
:10540000391C02F0CBFC061C0F1CC0E71868596859
:10541000321C231C02F0C2FC049E059F0C9C0690CB
:10542000079163190493391C301C03F0CBFA051C57
:1054300003F0FEFA0B1C021C391C301C02F048FF62
:105440003035049B25700134061C0F1CA34224D167
:105450000022069807996F4B01F03AFD021C0B1CC5
:10546000301C391C01F002FD002800D086E0069AAD
:10547000079B0020674902F02BFF021C0B1C301C0D
:10548000391C01F0DFFC00280ED0049B013B1A7888
:10549000302A00D0F9E20493F7E70022574B02F0DC
:1054A0007DFC061C0F1CBEE7149B159C06930794FD
:1054B000199B002B00DA86E0039A0E2A00DD82E0B9
:1054C000D300534AD3181E685F68219B002B14DA5F
:1054D000099B002B11DC00D090E1301C391C00220C
:1054E000494B02F05BFC069A079B01F0C9FC099F3F
:1054F0003E1C002800D083E18CE10C9B069C079D9C
:105500000493321C3B1C201C291C02F009F803F0F8
:1055100059FA069003F08CFA321C3B1C02F03EFC58
:10552000021C0B1C201C291C02F0D2FE0B1C04992F
:10553000021C0698013104913030013908700C9832
:105540000499091A099881422ED1101C191C01F0E6
:10555000BFFC321C3B1C041C0D1C01F087FC002806
:1055600010D1201C291C321C3B1C01F065FC0028BA
:1055700000D18CE2069BDB0704D488E2119B0393E5
:1055800000E00493049B013B1A78392A08D10C9A55
:105590009342F6D1039B0133039330231370131C02
:1055A0001A7801321A7072E2101C191C0022134B77
:1055B00002F0F4FB00220023041C0D1C01F03CFC53
:1055C00000289ED063E2109A002A44D0209A012A33
:1055D0000BDC169A002A02D00F4A9B1802E03623F1
:1055E000189A9B1A0F9D0D9C29E0099B5D1E0F9B2D
:1055F000AB4213DB5D1B18E00000F03F00002440CD
:1056000000001C400000C0FC000014400000C07CF2
:10561000489800100000E03F330400000F9B0F95F6
:10562000EA1A0025129B9B181293099B002B04DA9F
:105630000D9B099A9C1A002301E00D9C099B0D9A71
:105640000898D2180D920E9A0121D3180E9300F0EB
:1056500089FE061C02E00F9D0D9C109E002C0CD0B4
:105660000E9B002B09DDA34200DD231C0D9AE41ADA
:10567000D21A0D920E9AD31A0E930F9B002B21DD96
:10568000109B002B18D0002D10DD311C2A1C08980F
:1056900000F0FEFE061C0A9A311C089800F06BFE12
:1056A000071C0A99089800F07EFD0A970F9B5A1B69
:1056B00008D008980A9902E008980A990F9A00F011
:1056C000E7FE0A900898012100F04CFE129B071C8F
:1056D000002B0ADD391C1A1C089800F0D9FE209B0B
:1056E000071C0025012B1BDC03E0209B0025012B60
:1056F00012DC0025069BAB420ED1079B1B03AB427D
:105700000AD1179B079A134206D00D9B013501332E
:105710000D930E9B01330E93129B0120002B08D09A
:105720003B6903339B00FB18586800F0D1FD202330
:10573000181A0E9BC0181F23184009D001331B1ADA
:10574000042B02DD1C23181A03E0042B08D0181CBC
:105750001C300D9B24181B180D930E9B1B180E93C9
:105760000D9B002B05DD08980A991A1C00F0E2FE3B
:105770000A900E9B002B05DD391C08981A1C00F0BE
:10578000D9FE071C139B002B1ED00A98391C00F071
:1057900023FF002818DA039B0898013B03930A991A
:1057A00000230A2200F018FD109B0A90002B00D164
:1057B0007FE1311C002308980A2200F00DFD0B9BAD
:1057C000061C002B3CDC7DE1099B002B2EDC209B82
:1057D000022B2BDD099B0B930B9B002B10D1391C4B
:1057E0000898052200F0F8FC071C0A98391C00F004
:1057F000F3FE00280EDC03E02F1C00E000273E1C17
:10580000219BDB4303930C9B04930CE02F1C2E1C69
:10581000119B03930C9B0C9A013304933123137057
:10582000039B01330393099600261AE1109B002B7A
:1058300004D1099B0B930C9D0A9CD0E0099B0B9310
:10584000002C05DD311C0898221C00F073FE061C9C
:105850000996002D12D07168089800F06CFC311C7C
:10586000041C33690C319A1C92000C30FDF732FD98
:105870000898211C012200F05DFE09900C9B0C9AF7
:105880000E930B9B0A9C013BD3181093391C201CD0
:10589000FFF798FA031C0F903033311C201C0D9336
:1058A00000F09AFE391C0B90099A089800F0AFFEA0
:1058B00001230493C368051C002B04D1201C291C60
:1058C00000F08AFE04900898291C00F06CFC049BF0
:1058D000209A134310D1069A013313420CD10D982C
:1058E0000A9439283DD00B9B002B01DD0F983130F5
:1058F0000E9B013304933EE00B9B002B05DA049BC7
:105900000D9D0A94002B09DC1CE00B9D209B1D4380
:105910001ED10123069A13421AD1F0E7211C0898E0
:10592000012200F007FE391C0A9000F055FE002805
:1059300003DC07D10D9BDB0704D50D9B392B10D061
:105940001D1C01350E9B013304930E9B1D7088E0D6
:105950000E9B5D1C049B002B10DD0D9B0A94392BC4
:1059600006D10E9B0E9A013304933923137060E025
:105970000D98049501300E9B187072E06A46342130
:10598000521812780E9B04951A70109A93423FD0C9
:10599000211C0A220023089800F01EFC099B041C0D
:1059A000311C08980A229E4205D1002300F014FC05
:1059B000061C09900AE0002300F00EFC0999061C61
:1059C0000A220898002300F007FC09900E955DE775
:1059D000211C08980A22002300F0FEFB041C201C56
:1059E000391CFFF7EFF934226B4630309B180D90CD
:1059F0001B780B9A2B700C9B0135EB1A9342E7DB5B
:105A0000131E00DC0123099600260C9AD318049378
:105A1000211C0898012200F08DFD391C0A9000F02D
:105A2000DBFD002805DC15D10D9BDB0701D411E05F
:105A30000493049B013B1A78392A08D10C9A9342AB
:105A4000F6D1039B013303933123137009E0013234
:105A50001A7006E0049B013B1A78302A01D10493A6
:105A6000F8E70898391C00F09EFB099B002B0ED02C
:105A7000002E05D09E4203D00898311C00F093FB05
:105A80000898099900F08FFB01E0119B0393089897
:105A90000A9900F088FB0023049A0C981370039B6A
:105AA000229A01331360249B002B10D0049A1A60B1
:105AB0000DE00B9B002B00DDBDE6209B022B00DDE3
:105AC0008AE6B8E6209B022B00DD85E6B8E61BB02F
:105AD000F0BDC046F0B5061C056914364A11341CE9
:105AE000AA4225DA1F23AD00920019407519B21899
:105AF000331C002916D0131C04CB2027CA40B446FF
:105B00007F1A6446AB4208D21C68BC4022436446FC
:105B100004C404CBA446CA40F3E72260002A07D09D
:105B2000043405E01C1CAA4202D202CA02C3F9E7EF
:105B3000A31B9B10036100D14361F0BD031C303BEC
:105B4000092B01D820380BE0031C613B052B01D841
:105B5000473805E0021C413A0023052A01D82738BE
:105B6000C3B2181C7047F0B58DB0099102920A9328
:105B7000059000F0C7FA0368181C0793FEF746FA71
:105B8000079B04901B18013B1B780B93099B19681A
:105B90008A1C01920198531A0078023B0132302886
:105BA000F7D00893FFF7CAFF061E20D10198079986
:105BB000049A01F0D7F800283CD1019B049A9C1864
:105BC0002078FFF7BBFF002837D00194019B18789D
:105BD000302803D1019B01330193F7E7FFF7AEFFB4
:105BE0004342434103930123261C089302E0002310
:105BF0001E1C0393019C2078FFF7A0FF002801D012
:105C00000134F8E7201C0799049A01F0ABF800284A
:105C10000BD1002E0BD1049BE618341C2078FFF723
:105C20008DFF002801D00134F8E7371E08D0361B5D
:105C3000B70005E0019C371C00E0071C012303931B
:105C40002378502B01D0702B28D163782B2B07D0D1
:105C50002D2B03D00023651C069304E0012300E0F4
:105C600000230693A51C2878FFF768FF431EDBB2CC
:105C7000182B13D810380135061C2878FFF75EFF63
:105C8000431EDBB2182B03D80A235E433018F1E71A
:105C9000069B002B00D07642BF1900E0251C099B13
:105CA0001D60039B002B06D00020089B834200D080
:105CB0007BE1063079E1019B0399E31A013B072B55
:105CC00002DD01315B10FAE7059800F034FA031C9D
:105CD0000026051C1433039308930696019B9C42EF
:105CE0002AD9631E09930B9A1B78934209D0069B0D
:105CF000202B14D1089B1E600026043308930696BF
:105D00000DE0099B049A9C1A019B01349C42EED33E
:105D1000201C079901F026F80028DFD0E7E7099B4F
:105D20001878FFF70BFF0F231840069B099C98403B
:105D3000043306430693D1E7089C039B40C4E41A4E
:105D4000A4102C61301C00F0C3FA029B64011B6894
:105D5000261A01939E4225DDF61A281C311C00F0FC
:105D6000CBFD0024A04217D01F230134201C721E3B
:105D700013409840031C5111039889000958194297
:105D80000AD0A24201DC022406E0B11E281C00F069
:105D9000B3FD0028F7D00324281C311CFFF79AFE1E
:105DA000BF190EE0019B00249E420ADA9E1B291CAB
:105DB0000598321C00F0BEFB031C051C1433BF1BEE
:105DC0000393029B9B6804939F4208DD0598291C5E
:105DD00000F0E9F90023129AA3201360E5E0029B8A
:105DE0005E68B7425ADA019BF61B9E4232DB029B89
:105DF000DB68022B1ED0032B20D0012B21D1019B6D
:105E00009E421ED1012B0DDC029B62205B68019338
:105E1000019A0A9B1A600123039A2B611360129B5B
:105E20001D60C2E00199281C013900F065FD0028C1
:105E3000EAD106E0139B002BE6D002E0139B002B77
:105E4000E2D10598291C00F0AEF90023129A5020E7
:105E50001360AAE0771E002C07D1002F06DD281C56
:105E6000391C00F049FD041C00E001241F237A11B5
:105E70001F401E3BBB401F1C039B9200D3583B425C
:105E800001D002231C43019B311C9B1B281C019346
:105E9000FFF720FE029B02265F6800E00126002C2F
:105EA0007ED0029BDB68022B0BD0032B0DD0012B85
:105EB00074D1A20772D5039A126814431C4207D109
:105EC0006CE00123139A9B1A1393139B002B65D04C
:105ED0002C69A30003932B1C039A143399181A6896
:105EE000501C02D001321A6021E0002204C3994202
:105EF000F5D8AB689C4212DB6B680598591C00F022
:105F00001AF9291C2B6904909A1C0C3192000C3050
:105F1000FDF7E0F9291C059800F045F9049D2B696F
:105F20005A1C2A61012204339B00EB185A602B1C77
:105F30001433022E11D1029A01991268013A91424A
:105F40002AD14A111F210198920001400120041C0E
:105F50008C40D35823421FD00CE02A69A2420BDDAB
:105F6000281C0121FFF7B6FD029B01379B689F4269
:105F700000DD2BE701260FE01F24019A01262240B5
:105F8000141E09D0039A9B18043B186800F0A0F96E
:105F900020210C1BA042E3DB202300E010231E4342
:105FA000301C129B1D600A9B1F600DB0F0BD0823C2
:105FB00070B520259A1A9200AD1A436806681C1C19
:105FC000AC40D34034430460436004308842F4D38F
:105FD00070BDF0B589B000920A68009953119B001A
:105FE000CB1802931F231A400790059202D0029B00
:105FF00004330293029B00251E1F371C341C079B91
:1060000035601B68069503930195039B0133039349
:106010001B780493002B3BD00498FFF78FFD0028DA
:1060200022D1049B202B17D8069B019A9342ECDACD
:10603000BC4206D2072D04DC201C391C2A1CFFF7A9
:10604000B6FF009B08259C42DFD90025019B271F36
:106050003D6006933C1CD8E7049B292B4CD1039B45
:10606000079A0133136013E0019B0135013301935B
:10607000082D06DD009B9C42C7D900230125043C66
:10608000236023681A010F23184010432060BCE7E7
:10609000019B002B30D0BC4206D2072D04DC201C13
:1060A000391C2A1CFFF783FF009B9C420AD904334A
:1060B00002CC1A1F1160A642F9D2002204C39E42EC
:1060C000FBD20EE0059B002B0BD020220599029BF2
:1060D000521A01214942D1400A1C043B19680A4066
:1060E0001A603368002B09D1009B9E4202D1012324
:1060F000336003E0043EF4E7042000E0052009B02B
:10610000F0BD000000487047140B002008B5034B99
:10611000011C186800F066FC08BDC0460C0B00208E
:10612000C9B28218904204D003788B4202D0013069
:10613000F8E70020704770B5466A041C0D1C002E5D
:1061400007D11020FFF7E2FF6062466086600660BC
:10615000C660666AF368002B09D0626AAB00D26839
:10616000D318186800280ED002681A6017E0201CA7
:106170000421212200F0E1FB636AF060DB68002B60
:10618000EBD100200EE001210E1CAE40721D9200EA
:10619000201C00F0D2FB0028F3D04560866000236D
:1061A0000361C36070BD70B5456A061C0C1C002DF0
:1061B00007D11020FFF7AAFF706245608560056077
:1061C000C560002C07D0726A6368D2689B00D31840
:1061D0001A6822601C6070BDF7B51E1C14239C4613
:1061E000071C0C1C00200D698C44634619881B6831
:1061F00051431B0C534389190E0CF31889B21E0C22
:106200001B045B186146013008C18C46A842ECDBD8
:10621000002E1BD0A3689D4212DB6368381C591CFA
:10622000FFF789FF211C236901909A1C0C31920011
:106230000C30FDF74FF8211C381CFFF7B4FF019C10
:106240002B1D9B00E31801355E602561201CFEBDFF
:10625000F7B5061C181C0C1C083009210193151CED
:10626000FBF792F901230021984202DD5B00013126
:10627000FAE7301CFFF75FFF089B011C4361012315
:106280000361092D12DD231C09331F1C00936419BF
:106290003B78301C303B0A22FFF79EFF0137011C80
:1062A000A742F5D1009B5C19083C01E009250A349E
:1062B0002F1C019B9F4209DA631BDB5D301C303BC6
:1062C0000A22FFF789FF0137011CF2E7081CFEBD17
:1062D0000022031C010C914201D103041032190E5B
:1062E00001D108321B02190F01D104321B01990F91
:1062F00001D102329B00101C002B03DB20205B002D
:1063000000D5501C70470722036810B5011C1A40C5
:106310000CD001240020234223D10222134203D0B7
:10632000E340201C0B601CE09B0818E098B200289A
:1063300001D110221B0CD8B2002801D108321B0A4F
:10634000180701D104321B09980701D102329B08BA
:10635000D80704D45B082020002B02D00132101C87
:106360000B6010BD10B50C1C0121FFF7E4FE0123EA
:106370004461036110BDF0B50B69141C126989B04A
:106380000D1C934201DA251C0C1C2F692669AA6892
:10639000BB1969680093934200DD0131FFF7CBFE22
:1063A000011C009B1431844698000B1C0818834282
:1063B00002D2002204C3FAE71435BF00EB191434EB
:1063C000B6000493A31902950693069B9C4256D2ED
:1063D00023880393002B22D00E1C0027029B0193DD
:1063E000019B039D04CB059601933388079393B2D9
:1063F0006B43079D120CEB183568DB192F0C039DBE
:106400006A43BA181F0CD219170C9BB2120413431B
:1064100008C6019A049B9A42E2D3059B5F602368F9
:106420001B0C019321D000220D1C0B68029F0392CC
:106430003E88019A9BB256432A680595120CB21801
:10644000039E9219160433432B6008CF019E1B0C48
:106450007343AE88120C9B199B181A0C0392049A72
:106460000435BA42E4D8059A536004340431ACE7E9
:1064700004380368002B05D1009B013B0093009B6F
:10648000002BF5DC63466046009A1A6109B0F0BD46
:106490000323F7B51340051C0E1C141C002B07D05A
:1064A000224A013B9B009A580023FFF795FE061CE9
:1064B000A310019337D06C6A002C07D11020FFF78E
:1064C00025FE6862446084600460C4606F6ABC68D2
:1064D000002C10D1281C1649FFF744FF0023B86098
:1064E000041C036007E0019B5B1001931BD0206834
:1064F00000280FD0041C019BDB07F4D5311C221CA3
:10650000281CFFF738FF071C311C281CFFF74BFE27
:106510003E1CE8E7281C211C221CFFF72CFF00234F
:1065200020600360E6E7301CFEBDC04638990010CD
:1065300071020000F0B50C1C171C2369551185B0C1
:10654000EB180193013300934968A3680290009A05
:106550009A4202DD01315B00F9E70298FFF7EBFD9B
:10656000021C061C00231432AB4204DA00209900FE
:1065700050500133F8E7EB43DB171D40231CAD00FF
:1065800055192269143392009A1894461F22174015
:1065900014D00132D21B039200221968281CB94082
:1065A0000A4304C504CB0399CA409C45F5D8426010
:1065B000002A07D0019B0233009303E004CB04C5FB
:1065C0009C45FBD8009B0298013B3361211CFFF7DF
:1065D000EAFD301C05B0F0BD03690A6910B59B1ACD
:1065E000041C181E12D1930014341431E218C91877
:1065F000043A043913680868834204D083429B41FB
:106600000120184302E0A242F2D8002010BDF0B5EC
:10661000071C85B0081C0C1C111C151CFFF7DCFFA7
:10662000061E07D1381C311CFFF785FD012346618A
:10663000036155E000230193984204DA231C2C1CCB
:106640001D1C01230193381C6168FFF774FD019B39
:1066500026692F1CC3601434B300E318021C029394
:106660002B69002514379B00FB180393143208CCC8
:1066700069469C4608CF0432009363468B808B8822
:106680005D19009B9BB2EB1A65460193009B2D0C94
:10669000190C019B691A1D14131F9C466B4649195E
:1066A0009B880D1409040B4361460B60039B9F42BA
:1066B000DDD30299131C8C420BD208CC99B2491934
:1066C0000D141B0CEB181D1489B21B040B4308C2DC
:1066D000EFE7043B1A68002A01D1013EF9E70661A1
:1066E00005B0F0BD0F4B10B519400F4BC91800296C
:1066F00002DD00220B1C11E0494209150022002393
:10670000132904DC802000030841031C06E001205B
:10671000322902DC3324611A8840021C101C191C27
:1067200010BDC0460000F07F0000C0FCF7B5061C9D
:10673000036914369B00F3181D1F2C680F1C201CC6
:106740000193FFF7C5FD20231B1A3B601F490A2850
:1067500013DC0B23271C1B1ADF4039439C460B1C00
:106760000021B54202D901990839096865461530FA
:10677000E940844021430A1C24E00027B54202D9A5
:10678000019D083D2F680B235B429C468444634671
:10679000002B14D02B23181A63469C4021433C1C29
:1067A000C44021430B1C0024B54201D9043D2C6890
:1067B000C4406146201C8F403843021C02E0214344
:1067C0000B1C3A1C101C191C03B0F0BD0000F03F5C
:1067D000F7B51D1C0121089F141CFFF7ACFC2B030F
:1067E0006D00061C1B0B6D0D02D08022520313435B
:1067F0000193002C18D068460094FFF784FD009C9C
:10680000002809D02023019A191A131C8B40C2407A
:1068100023437361019200E07461019CB461631EC3
:106820009C410134346107E001A8FFF76CFD0124AD
:10683000019B346173612030002D06D00B4BED18A5
:1068400035232D183D60181A0BE0094BC018094B71
:106850003860E3189B00F3185869FFF739FD6401AD
:10686000201A099B1860301CFEBDC046CDFBFFFFFF
:10687000CEFBFFFFFFFFFF3FF0B587B00E1C04A962
:10688000071CFFF753FF041C0D1C301C05A90094C6
:106890000195FFF74BFF049B059A3F699A1A3369EC
:1068A00002900391FB1A5B01D318002B03DD1B053B
:1068B0005B19019302E01B05CB1A03930098019921
:1068C000029A039B00F02CFE07B0F0BD131C0139A7
:1068D00010B5491112690131890014339200411831
:1068E0009A18934202D210CB10C0FAE7884202D223
:1068F000002308C0FAE710BD30B5041C0269143447
:106900004B1193420CDC0CDA1F22114009D09A0083
:10691000155901202A1CCA408A40AA420CD100E025
:10692000131C9B00E318A34205D9043B1A68002AF4
:10693000F9D0012000E0002030BD4A4338B5111CD9
:10694000141C00F04FF8051E03D00021221CFCF798
:10695000CAFC281C38BD000030B500293ED00439DF
:106960000B68002B00DAC9181D4A1368141C002B91
:1069700002D14B60116031E099420DD208680A18CB
:106980009A4203D11368C3180B6053684B602160AF
:1069900024E08A4203D8131C5A68002AF9D11D68E2
:1069A0005C198C420BD1096869185818196090421B
:1069B00014D110685268091819605A600EE08C42B0
:1069C00002D90C23036009E008680C18944203D133
:1069D00014685268001908604A60596030BDC046AA
:1069E00030190020032370B5CC1C9C430834051CCF
:1069F0000C2C01D20C2405E0002C03DA0C2300201F
:106A00002B6042E08C42F9D3204A1368101C191CF9
:106A1000002913D00A68121B0DD40B2A02D90A6070
:106A20008B181FE08B4202D15A6802601BE04A6853
:106A30005A600B1C17E00B1C4968E9E7144E3368D9
:106A4000002B03D1281C00F07BF93060281C211C8E
:106A500000F076F9031C421CD0D00322C61C9643DA
:106A600086420AD11C60181C07210B301A1D88436E
:106A7000821A0AD05142995007E0311A281C00F0BE
:106A80005FF9431CBAD0331CECE770BD301900200D
:106A90002C190020F0B58E6885B0071C0C1C0392E1
:106AA0000193B34245D390238A89DB001A423DD03B
:106AB00003250969236801985B1A029363695D43A2
:106AC000EB0F5D19029B6D1001331B189D4200D224
:106AD0001D1C381C53050FD5291CFFF783FF061E0C
